:107000006BC00000AAC000008EC000008CC0000051
:107010008AC0000088C0000086C0000084C0000054
:1070200082C0000080C000007EC000007CC0000064
:107030007AC0000078C0000076C0000074C0000074
:1070400072C0000070C000006EC000006CC0000084
:107050006AC0000068C0000066C0000064C0000094
:1070600062C0000060C00000EC2DFD2DB7B6B0FC82
:10707000FDCF27BFE895B7B6B0FCFDCF21E1B7B68D
:10708000B6FCF4CF08950902120001010080320914
:10709000040000000000000012011001FF000008C1
:1070A000C016DC050201010200010E035500530069
:1070B00042006100730070001C03770077007700C6
:1070C0002E00660069007300630068006C002E00EB
:1070D000640065000403090411241FBECFEFD8E04B
:1070E000DEBFCDBF24B7D8E0CEEF39913833399128
:1070F00009F03FEF30933C0120933B0111E0A0E009
:10710000B1E0E4E7F8E702C005900D92A630B107C0
:10711000D9F721E0A6E0B1E001C01D92AB33B20780
:10712000E1F77CD1A5C36CCFA82FB92F80E090E008
:1071300041E050EA609530E009C02D918227979593
:10714000879510F084279527305EC8F36F5FA8F30A
:107150000895EADF8D939D930895CF93CFB7CF9392
:10716000DF93C3954B9BE9F74B9B0BC04B9B09C02F
:107170004B9B07C04B9B05C04B9B03C04B9B01C067
:1071800089C06F93C0911E01DD27CB5DDE4F2F9329
:1071900065E54B9B03C02F916F91E6CF0F931F9333
:1071A0004F9320E040E15F9309B10C7003FB27F996
:1071B0003F9350E03BE039C01C7040642F77012FB3
:1071C0005F5F1EC0406819B11C702F7752501FC0FE
:1071D000406409B12F770C70D1F15F5F00C023C00C
:1071E000406219B12F771C7091F15F5F00C025C01C
:1071F0000C701027515012F45D5F0000115027955C
:107200002C3F19B1C8F61C700127015027952C3F5F
:10721000C8F64227499309B10C7010274F731150DB
:1072200027952C3FA8F64695469519B11C7079F024
:107230000127015027952C3F98F66B5A60F3315087
:1072400009B1B0F600C011E01CBB002717C03B50CD
:107250003195C31BD04011E01CBB0881033CF9F001
:107260000B34E9F020911C011981110F1213EDCF9D
:10727000093651F10D3211F0013E39F70093230127
:107280003F915F914F911F910F912F916F91CCB3CF
:10729000C0FD67CFDF91CF91CFBFCF9118952091DF
:1072A0002301222369F310912101112339F5343090
:1072B0003AF13093210120931D0110911E013BE012
:1072C000311B30931E011CC0009121010130B4F428
:1072D0000AE53091010134FD14C000930101C1E1C0
:1072E000D1E013C0052710E000C000000BB91AC0A0
:1072F000052710E0221F1DC010E021C04AE502C092
:1073000032ED432FC4E1D0E032E01AB11C605B9A49
:107310000BB11AB95CE020E865E320FF05270BB943
:10732000279517951C3FF0F66695B8F7B1F720FF43
:1073300005270BB9279517951C3FD0F6279517956C
:1073400017FF052700001C3F0BB9B0F629913A95AD
:1073500019F7037F10912201110FC651D0400BB9CC
:1073600011F010931C0111E01CBB08601AB1137FCF
:10737000402F437F54E05A95F1F70BB91AB94BB936
:107380007FCFFC01438134818381948198278927B1
:1073900098272281203339F43370E32FF0E0EE5F39
:1073A000FE4F80810895283561F489E0E1E0F0E046
:1073B000442371F089E0E3E0F0E0483049F080E0F8
:1073C0000895203579F4411107C089E0F0E0E0E04C
:1073D000809357008491089589E0E2E0F0E048301E
:1073E00071F7F6CF203229F4880F991FFC018491A0
:1073F0000895283229F4FC01EE0FFF1F3196F7CFD4
:10740000203A09F41FC2203C19F4658123D2D7CF5A
:107410002F3FA9F681EF80930F01D1CF1AB880E2F8
:107420008BB981E085BF82E085BFE0E0F1E7A895F8
:1074300031978040E1F780913B01877F21F4809173
:107440003C01882371F04D9B0CC0F894539A1BB8F3
:107450001DBA1092690081E085BF15BEF0E0E0E042
:1074600009958EEF80930F0114BE0FB6F894A8957E
:1074700080916000886180936000109260000FBE70
:1074800080916900826080936900E89A539A8CE049
:10749000E0E0F5E3A89531978040E1F753987894C0
:1074A00010912101135017FD5AC080911E01CCE0AC
:1074B000D0E0C81BD109CB5DDE4F80911D018D321C
:1074C00009F00BC1183009F048C083EC809311011A
:1074D0008AE580930101109210013881832F807614
:1074E0009981882309F49BC046E051E05093200124
:1074F00040931F01933069F4CE0143DF809309016B
:1075000084E09F81911127C09E81981720F5892FD3
:1075100022C0953009F4DFC09A3009F4DCC08CEF4A
:10752000890F863008F070C04A815B8150930E014C
:1075300040930D01993009F46EC08E8180930C0147
:107540002D81227020930B0190930A0137FF8FEF5A
:1075500090E8909310018093000110922101809196
:10756000010184FF36C0809100018F3F91F1182FF7
:10757000893008F018E0982F911B909300019091AA
:10758000110128E89227909311018823A9F03091E6
:10759000100137FF2EC180910C01811708F4182FBC
:1075A000811B80930C01D0900A0100E082E1E82E5B
:1075B00081E0F82E101305C1612F82E191E0C9DD51
:1075C00084E0810F183019F09FEF909300018093B1
:1075D000010184E199B19C7031F48150D9F7109286
:1075E000220110921C0180910F01803108F41FC10B
:1075F0004D9B05C080910F01805180930F018091B8
:107600000F0181114DCF21CF80910F01923029F4CC
:107610008E7F80930F0180E074CF8160FACF2A8142
:1076200010921A0191110AC010921B012AE131E057
:1076300082E03093200120931F0163CF953029F41D
:10764000209322012AE131E0F4CF963099F59B8115
:10765000913059F488E990E79093200180931F01BD
:1076600082E190E4909310014CCF923019F486E8B7
:1076700090E7F2CF9330A9F7211108C084ED90E78D
:107680009093200180931F0184E0EBCF213041F4DF
:1076900088EB90E79093200180931F018CE1E1CF6C
:1076A0002230F9F68AEA90E79093200180931F0137
:1076B0008EE0D7CF983059F0993019F420932401F7
:1076C000C1CF81E09A3009F4BDCF80E0BBCF24E286
:1076D00031E081E0AECF81E014CF8091100187FFCF
:1076E0003CCF00910C01011708F4102F011B0093EF
:1076F0000C01F12CF11628F001112FCF109200018E
:107700002CCF80910D0190910E0120910A0127301C
:1077100058F069919C012F5F3F4F30930E012093E9
:107720000D0198D0F394E6CF8115904738F7F39484
:10773000F394F894E0910D01F0910E0129913991A3
:1077400081E0090180935700E89511247894809195
:107750000D0190910E01029690930E0180930D0100
:107760008F779927892B51F00111C4CFF11608F4B6
:10777000C1CF80910B01882309F4BCCFF894E0912C
:107780000D01F0910E01329783E080935700E89548
:10779000789407B600FCFDCFF894E0910D01F091CC
:1077A0000E01329785E080935700E895789407B6EC
:1077B00000FCFDCFF89481E180935700E895789420
:1077C00099CFC0910D01D0910E0126E02D1570F4D6
:1077D000CE0138D0F7018083FFEFEF1AFF0A219620
:1077E000D0930E01C0930D010F5FE4CEFE01849192
:1077F000F1CF80911F0190912001212F280FFC01D2
:1078000082E191E036FF0CC03491DC013C9301969B
:1078100031962E13F9CFF0932001E0931F01CCCEC7
:10782000DC0131913C9301962E13FACFF4CF4D99A0
:10783000E6CE80910F01823008F4E1CE80910F01F5
:107840008250DBCEF999FECF92BD81BDF89A99277F
:1078500080B50895262FF999FECF1FBA92BD81BD3C
:1078600020BD0FB6F894FA9AF99A0FBE01960895C2
:04787000F894FFCFBA
:06787400FF5A1E950F00F3
:040000030000700089
:100000000C9437020C9454020C946F020C9454021A
:100010000C9454020C9454020C948D1C0C945402B5
:100020000C9454020C9454020C9454020C945402F8
:100030000C9454020C9454020C94251D0C945402FC
:100040000C9454020C9454020C9454020C945402D8
:100050000C9454020C9454020C9454020C945402C8
:100060000C9454020C94540235001E001F00200012
:1000700021002A0027002600250024002B00140060
:100080001A00080022004C00130012000C0023008C
:1000900029000400160015001700340033000F007B
:1000A00018001C00E1001D00070009000A002800DC
:1000B00038000E000D000B00E0001B0006001900C8
:1000C00005004F0037003600100011002252E200F8
:1000D000E30021522C0052005100500022522C000B
:1000E00035021E021F02200221022A0027022602D8
:1000F0002502240235021E021F02200222024C00A9
:1001000027022602250223024C003A003B0021026E
:100110002202310230022F02240223020100400099
:100120003C003D003E0001004D002E022D023F002C
:1001300001004100420043004400AE004A00640256
:100140003202450001000100010001000100A90088
:10015000AA00AB000100010035001E001F002000B6
:1001600021002A00270026002500240035001E005B
:100170001F00200022004C0027002600250023003D
:100180004C003A003B0021002200310030002F00DB
:1001900024002300010040003C003D003E0001001F
:1001A0004E002E002D003F000100410042004300A0
:1001B0004400AE004B006400320045000100010025
:1001C000010001000100A900AA00AB00010001002C
:1001D0000100010001000100010001000100010017
:1001E0000100010001000100010001000100010007
:1001F00001000100010001000100010001000100F7
:1002000001000100010001000100010001000100E6
:1002100001000100010001000100010001000100D6
:1002200001000100010001000100010001000100C6
:1002300001000100010001000100010001000100B6
:1002400001000100010001000000000000000000AA
:100250002A2B280000000000000000000000000021
:1002600000000029000000002C1E3420212224342C
:100270002627252E362D3738271E1F2021222324FE
:1002800025263333362E37381F0405060708090A9A
:100290000B0C0D0E0F101112131415161718191A36
:1002A0001B1C1D2F3130232D350405060708090AB4
:1002B0000B0C0D0E0F101112131415161718191A16
:1002C0001B1C1D2F3130354C0000000000000000C9
:1002D000000000000000000000000000000000001E
:1002E0000000000000000000000000007E0F00D4AD
:1002F000FFFFFFC70000007809025B00030100A0B8
:10030000320904000001030101000921010100017B
:1003100022440007058103080001090401000203CB
:1003200000000009210101000122220007058403C9
:100330000800010705040308000109040200010385
:10034000000000092101010001227B000705830351
:1003500008000112011001000000086A700200018B
:10036000000102000116034C0075006D006200657B
:100370000072006A00610063006B0000000A035015
:1003800000650065006A000000040309040660FFC0
:100390000961A1010962150026FF009520750881F9
:1003A000020963150026FF00952075089102C0051B
:1003B000010902A10185020901A10005091901290C
:1003C000081500250195087501810205010930090C
:1003D000311581257F95027508810609381581251B
:1003E0007F950175088106050C0A38021581257F65
:1003F000950175088106C0C005010980A10185032A
:1004000019012AB700150126B70095017510810062
:10041000C0050C0901A101850419012AA0021501DA
:1004200026A002950175108100C005010906A101F1
:10043000050719E029E715002501950875018102D6
:100440009501750881030507190029FF150026FF8E
:100450000095067508810005081901290515002574
:1004600001950575019102950175039103C0112451
:100470001FBECFEFD8E0DEBFCDBF11E0A0E0B1E0FE
:10048000EAEDF3E402C005900D92A439B107D9F763
:1004900023E0A4E9B1E001C01D92A735B207E1F75E
:1004A0000E94C9120C94A3210C940000A82FB92F0C
:1004B00080E090E041E050EA609530E009C02D9185
:1004C00082279795879510F084279527305EC8F38B
:1004D0006F5FA8F30895EADF8D939D930895CF93FE
:1004E000CFB7CF93DF93C3954B9BE9F74B9B10C0DE
:1004F0004B9B0EC04B9B0CC04B9B0AC04B9B08C038
:100500004B9B06C0C0912E03C395C0932E038EC093
:100510006F93C0912D03DD27CB5CDC4F2F9365E5F6
:100520004B9B03C02F916F91E1CF0F931F934F937C
:1005300020E040E15F9309B10C7003FB27F93F9382
:1005400050E03BE039C01C7040642F77012F5F5FA3
:100550001EC0406819B11C702F7752501FC04064F4
:1005600009B12F770C70D1F15F5F00C023C04062EA
:1005700019B12F771C7091F15F5F00C025C00C701E
:100580001027515012F45D5F0000115027952C3F49
:1005900019B1C8F61C700127015027952C3FC8F6E9
:1005A0004227499309B10C7010274F7311502795BA
:1005B0002C3FA8F64695469519B11C7079F0012795
:1005C000015027952C3F98F66B5A60F3315009B1D2
:1005D000B0F600C012E01CBB00271CC03B50319598
:1005E000C31BD04012E01CBB0881033C21F10B343B
:1005F00011F120912A031981110F1213EDCF4A81B5
:10060000441F093679F10D3211F0013E29F74F7080
:1006100009F0042F009333033F915F914F911F9195
:100620000F912F916F91CCB3C1FD5DCFDF91CF9131
:10063000CFBFCF91189520913303222369F31091F6
:100640003103112309F049C034300AF448C0309313
:10065000310320932C0310912D033BE0311B309389
:100660002D033DC0009131030130BCF50AE54F7008
:1006700049F43091160134FD33C000931601C7E0F0
:10068000D3E032C0433059F0443091F0309112033E
:1006900034FD26C000931203C3E1D3E025C030919E
:1006A0004B0334FD1DC000934B03CCE4D3E01CC0CE
:1006B00030911E0334FD14C000931E03CFE1D3E03C
:1006C00013C0052710E000C000000BB91AC00527B1
:1006D00010E0221F1DC010E021C04AE502C032ED2B
:1006E000432FC4E1D0E032E01AB11C605B9A0BB139
:1006F0001AB95CE020E865E320FF05270BB92795D0
:1007000017951C3FF0F66695B8F7B1F720FF05275F
:100710000BB9279517951C3FD0F62795179517FF0E
:10072000052700001C3F0BB9B0F629913A9519F73F
:10073000037F10913203110FC651D0400BB911F055
:1007400010932A0312E01CBB08601AB1137F402FDC
:10075000437F54E05A95F1F70BB91AB94BB95CCF06
:100760000E94B3030895459A449A08954598449881
:100770000895FB018581882319F0459A81E0089549
:100780004598FCCF882311F0449A08954498089521
:100790008430B8F46630A8F44A3098F4E42FF0E0DE
:1007A0009AE0699FE00DF11D11249CE3899FE00D03
:1007B000F11D1124EE0FFF1FE859FF4F8591949111
:1007C000089581E090E0089581E008950E94E40397
:1007D000089581E008950E94B903089508950E9444
:1007E000EE030895A6E0B0E0E8EFF3E00C94FF20FC
:1007F00049835A839E8330919B0189819A8131116B
:100800001AC03E81332399F0222389F00E946409A3
:10081000182F682F89819A810E94400969817A8105
:10082000812F0E943C102696E3E00C941B210E942D
:100830005209182FF3CF0E94640969817A81F1CFA0
:10084000FC01262F408151816281738184819581D1
:100850000E94F2030895CF93DF93D82FC92F61E050
:100860000E9420046D2F7C2F0E94E603DF91CF9120
:100870000895CF93DF93D82FC92F60E00E94200402
:100880006D2F7C2F0E94EF03DF91CF910895089583
:100890000E943B080E9447042FEF84E39CE0215014
:1008A00080409040E1F700C0000008950E94480495
:1008B0000E94491D08950E9448040E945E1D0895EB
:1008C0000F931F93CF93DF938C0161E00E9420046C
:1008D000EC01B8010E94CE15811106C080E0DF91C5
:1008E000CF911F910F910895B801CE010E94EB03A3
:1008F0008823A1F3B801CE010E94E21A882371F384
:10090000B801CE010E941117882341F3B801CE012E
:100910000E94541A882311F3B801CE010E94251BAE
:100920008823E1F2F8018581882381F0CA35FCE74C
:10093000DF0711F178F4C130ECE7DE07D1F0C33006
:10094000FCE7DF07A1F0C115DC4771F0C8010E9488
:10095000E903C5CFCB35ECE7DE0789F0CC35DC47C2
:10096000A9F70E94840DF2CF0E945604B7CF0E94CF
:10097000960D0E945B04B2CF0E948E0DE7CF0E94BD
:10098000920DE4CF0E946F1C0E94E90408950E941A
:10099000ED040E94741C0895089581E0089508955F
:1009A000CF93DF93D82F0E94CD04C82F882319F04E
:1009B0008D2F0E94CF048C2FDF91CF910895089541
:1009C000CF93C82F0E94CC048C2F0E94D004CF91CB
:1009D000089580E00E94E00408950E94731B0E9425
:1009E000E0040895CF930E94731BC82F8091960155
:1009F0008C1779F0C09396010E94F91C60939701BF
:100A0000709398018093990190939A018C2F0E9482
:100A1000E004CF910895ADE0B0E0E1E1F5E00C94A1
:100A20000021488759876A877B878C879D8791112A
:100A30000E94D20C1F8286E0FE013896DE011196DC
:100A400001900D928A95E1F78D8181110DC0298168
:100A50003A814B815C816D817E818F810E94020C85
:100A60002D96E2E00C941C21CE0101960E942B04ED
:100A70008111EDCFF5CFFC018481813021F480819B
:100A800091810E948D090895662329F00E946013C8
:100A90000E94331408950E94BA13FACFCF93C82F3F
:100AA0008823B9F08CEF8C0F813AA8F46C2F8091D9
:100AB0000001909101010E94F81B882329F08C2FDE
:100AC0000E94900C0E940B0D8C2F0E94880C0E949B
:100AD0000B0DCF91089580E28C0F883048F4C770D9
:100AE00081E001C0880FCA95EAF70E94B30CEFCFEE
:100AF0008BE58C0F833038F42C2F2452330BC90133
:100B00000E949A1BE6CFE8E5EC0FEB3150F4F0E0E1
:100B1000EE0FFF1FE95EFE4F808191810E94C01B96
:100B2000D8CF83E38C0F8331A0F661E08C2F0E9435
:100B30004405CFCF882381F19CEF980F913A28F498
:100B40000E94900C0E940B0D089590E2980F98302F
:100B500050F4877091E001C0990F8A95EAF7892FC8
:100B60000E94B90CEFCF9BE5980F933028F490E0EA
:100B700080E00E949A1B089598E5980F9B3128F415
:100B800090E080E00E94C01B089593E3980F93319A
:100B900018F460E00E94440508951F93CF93DF93FB
:100BA000182FEB010E944E05209739F4812F0E94E7
:100BB0009A05DF91CF911F9108958FE99FE00197EA
:100BC000F1F700C000002197EFCF70E060E08933BB
:100BD00011F460E570E00E94CD050895882321F0AE
:100BE0000E94B30C0E940B0D0895882321F00E94EF
:100BF000B90C0E940B0D0895B0E0A0E0E2E0F6E031
:100C00000C94F8206C01D62FC72FFC0115810681AA
:100C100002950F700E94A90CE82E8823E9F0E12EBE
:100C20001123D1F08C2F807F803451F080E28D0F22
:100C30008830F0F0011104C08C2F807E8032C1F02A
:100C40008091EA0282FF14C082E00E94580D0E9447
:100C5000A90C91E0E82EE9268C2F82958F70A82EA2
:100C6000B12C8C30B0F5F501EB55FE4D0C94E32022
:100C7000E12CF2CF0C2F0F70C07F11F00295007F96
:100C8000112399F0002359F080E28D0F883010F085
:100C9000D11107C0802F0E94B30C0E940B0D8D2F25
:100CA0005CC0802F0E94C40CF8CF8D2F0E949A0543
:100CB000002379F080E28D0F883010F0D11104C04C
:100CC000802F0E94B90C03C0802F0E94CA0C0E9482
:100CD0000B0D88E0A81AB10894E0A916B10420F41D
:100CE0000E94731B0E94E004EE2089F00E94A50C74
:100CF00080FD0DC0F60115820E949F0C0E94B30872
:100D0000C6010E9402080E949F0C0E94BF08CDB736
:100D1000DEB7EAE00C941421FC2FFF70FF2EC07F99
:100D2000C03219F0F29480EFF822DD2341F0D13087
:100D3000D1F1112309F444C00023F1F0B0CF809128
:100D4000EA0282FD15C0112359F0FF2029F08F2DF2
:100D50000E94B30C0E940B0D80E00E944E05B9CF9B
:100D600080E00E949A05FF2009F4B3CF8F2DA9CF10
:100D7000112369F0011104C08F2D0E94EE05A9CF47
:100D8000013009F0A6CF8F2D0E94E90CA2CF0111EE
:100D9000A0CF8F2D0E94F5058F2D0E94F50C8F2D71
:100DA0000E94D90C96CF112321F0063008F091CF84
:100DB000E3CF053008F08DCF8F2D0E94F50589CF48
:100DC0000023D1F3D93349F42FEF87EE93E021507C
:100DD00080409040E1F700C000008D2F0E949A05EE
:100DE00078CF8C2F86958695837069F0813009F0D5
:100DF00070CF8D2F9C2F9370111102C080E090E076
:100E00000E94C01B66CF8D2F9C2F9370111102C0C2
:100E100080E090E00E949A1B5CCF612F8D2F0E9492
:100E2000440557CF8C2F837081F5111152CF4D2F70
:100E3000429546954770440F440F8D2F8F70042EB6
:100E400001C0880F0A94EAF72D2F2071D4FF07C044
:100E50002FE030E001C0220F4A95EAF72095C695B1
:100E6000C695C370822BC23051F0C33059F0C130E7
:100E700019F00E9492082DCF0E948C082ACF0E9460
:100E8000980827CF0E94890824CF8695112311F056
:100E90008C2F8170882309F41CCF4D2F42954695E5
:100EA0004770440F440F8D2F8F70042E01C0880FA0
:100EB0000A94EAF72D2F2071D4FF07C02FE030E00D
:100EC00001C0220F4A95EAF72095C695C695C370D2
:100ED000822BC23051F0C33059F0C13019F00E945A
:100EE000DE08F7CE0E94D808F4CE0E94E408F1CEC6
:100EF0000E94A108EECECF70112329F08C2F0E9402
:100F0000B3088D2F3ACF8D2F0E94F5058C2F0E94AC
:100F1000BF08DFCED23F41F160F4D03FB9F0D13FFE
:100F200081F0112309F446C00111B9CE8C2F8F71C5
:100F30001FC0D33F01F1D43FA1F78091EA0282FDA7
:100F400024C08C2F8F71112311F312C0112341F093
:100F5000053008F0BECE8C2F8F710E94CC08B9CE20
:100F6000063008F0B6CEF7CF8C2F8F711111CFCF8E
:100F70000E94B308AECE112329F08C2F8F710E94EE
:100F8000AA08A7CE0E94A608A4CE112349F0CF71CB
:100F90008C2F0E94B30863E08C2F0E943A0D99CEEB
:100FA00081E00E94580D023008F493CE82E00E9446
:100FB000580D8FCE002359F0D93309F00ECFEFEF43
:100FC000F7EE23E0E150F0402040E1F704CF8C2F12
:100FD0008F719DCF0F931F93CF93DF93EC016881A7
:100FE00079818D810E949A098C010E94EA080E94F1
:100FF0008808B801CE010E94FC05DF91CF911F91B6
:101000000F910895CF93DF93EC018C81882399F0A1
:10101000CE010E946004811111C00E94A90C882396
:1010200051F08D81882339F08091EA0282FF03C05C
:1010300082E00E94580DDF91CF910895CE010E9469
:10104000EA07CE010E943904F6CF90E080E00E94CA
:101050009A1B90E080E00E94C01B0E94D20C0E946C
:101060000B0D0E944E140E94331408950E94980C98
:101070000E94250808950E94C10C0E943608089518
:10108000282F92959F70963091F060F4925F9F7038
:10109000923030F481E0203F81F030F4283E30F08F
:1010A00080E008959A5FF3CF243FD1F7089581E05F
:1010B000283EE0F3213FA1F7F9CF0895FC01848198
:1010C000882339F0808191810E948D090E94400817
:1010D000089580E00895A6E0B0E0E1E7F8E00C9420
:1010E00000212696E2E00C941C21A7E0B0E0EBE79B
:1010F000F8E00C9400212796E2E00C941C2108955E
:101100000E947F0808950E9480088093B501089589
:1011100008950E94830808959091B501892B0E943B
:10112000830808959091B50189230E94830808954A
:101130009091B50189270E94830808950E94C203F7
:1011400008950E949E088093B401089580E00E9453
:10115000A108089591E001C0990F8A95EAF7892FB7
:101160000E94A108089521E030E001C0220F8A9575
:10117000EAF78091B401822B0E94A108089521E032
:1011800030E001C0220F8A95EAF720958091B401E2
:1011900082230E94A108089521E030E001C0220FBF
:1011A0008A95EAF78091B40182270E94A1080895E8
:1011B0009091B401892B0E94A10808959091B401E7
:1011C00089230E94A10808959091B40189270E9463
:1011D000A108089508959B01677091E001C0990FDF
:1011E0006A95EAF763E0369527956A95E1F7F90184
:1011F000EE0FFF1FE20FF31FE40FF51F50E040E07A
:10120000682F70E08191DF0111979B01042E02C0CD
:10121000369527950A94E2F72170219528272923EE
:1012200028272C934F5F5F4F4330510559F708959E
:101230009C01982F977083E0369527958A95E1F762
:10124000F901EE0FFF1FE20FF31FE60FF71F50E04B
:1012500040E080E0219130E0092E02C036952795CC
:101260000A94E2F721703327042E01C0220F0A945A
:10127000EAF7822B4F5F5F4F4330510559F70895CE
:10128000282F862F963068F42A3058F4622F70E0A9
:101290002AE0929F600D711D11244CE951E00E94DB
:1012A000EB080895292F963068F48A3058F490E0BE
:1012B0006CE971E03AE0239F800D911D11240E949A
:1012C0001809089580E00895B0E0A0E0EAE6F9E0AA
:1012D0000C94FB207C010091B4018091B501082B96
:1012E000C3E0D0E010E0DC2EC8010C2E02C09595C2
:1012F00087950A94E2F780FD09C02197A0F7D12CC9
:101300008D2DCDB7DEB7E7E00C941721B7018C2FF8
:101310000E944810019789F3F3CFCF93DF93D82F22
:10132000C92F0E9464096D2F7C2F0E944810DF9105
:10133000CF9108951F93CF93DF93162FD72F9091BE
:101340009B01992341F0862F972F0E948D09DF91F1
:10135000CF911F910895882381F0862F972F0E94A7
:101360006409C82F682F812F9D2F0E944009612F8B
:101370007D2F8C2F0E944810EACF862F972F0E9436
:101380005209C82FF4CFE1E0F0E0DF0102C0AA0F5C
:10139000BB1F6A95E2F7BD01DF0102C0AA0FBB1FA8
:1013A0004A95E2F76A2B01C0EE0F2A95EAF7962FCD
:1013B0009823961302C08E2B0895E0958E230895EE
:1013C000242F462F682F8091B4010E94C3090E94E8
:1013D000A10808951F93CF93DF93E091B60117E022
:1013E0008091B7018E1304C0DF91CF911F910895B2
:1013F000CE2FD0E01E9FF0011124E854FE4F208133
:101400003181428153816481758186810E94750892
:10141000FE013196E770E4CF2091F0013091F101A7
:101420004091F2015091F3016091F4017091F50146
:101430008091F6010E9475080895CF93DF93809103
:10144000F601807F09F04DC08091F501882309F4F1
:1014500048C0E091B6015091B701C091F101D0911F
:10146000F0016091F2017091F30147E05E17C9F15C
:101470008E2F90E0E49FF0011124E854FE4F248168
:10148000222391F1489FF001499FF00D1124DF01C3
:10149000A854BE4F11962C9111972C1325C02C9156
:1014A0002D1322C015962C91159721111DC012964F
:1014B0002D913C91261B370B283C3105A8F48091D7
:1014C000F6018F7080618093F601E254FE4F8081B7
:1014D0008F708061808380EF91E00E9402080E94FB
:1014E000EA09DF91CF910895FC013196E770BECFF4
:1014F000982FE091B6014091B70157E0E41302C084
:1015000080E008952E2F30E05E9FF0011124E85412
:10151000FE4F8181681306C08081981303C08581C6
:101520008111EFCFF9013196E770E8CFADE0B0E07F
:10153000ECE9FAE00C94F6208C0186E0F801DE017B
:10154000189601900D928A95E1F7F8018481E58063
:1015500090EFA92E91E0B92E9091F40191111FC046
:101560008823D1F0EE20A9F0C8010E945E08F82E71
:10157000882379F087E0F801D50101900D928A95D2
:10158000E1F7C5010E943B050E941D0A0E940C0A5A
:101590005FC0C8010E940208FF24F39459C0C080B4
:1015A000D18082809380F090F5012091F2013091FA
:1015B000F301A401421B530BFF2009F4DBC0483C9C
:1015C000510508F0A7C0882309F442C09091F101A9
:1015D0008091F601282F207F09F05CC0D91216C037
:1015E0009091F001C91212C0E1104EC08F7080615D
:1015F0008093F6010E940C0A80EF91E00E9402089D
:101600008091F601F8018683F12C22C0E1103CC0E4
:101610006D2D8C2D0E94780A6D2D8C2D0E94780ADC
:10162000E82E8111F1CFC886D986888599850E94D8
:101630008D09292F22952F70903478F49F702230D5
:10164000A8F09923B9F0F8019681907F99F4FE2CC7
:101650008F2D2D96ECE00C9412212A5F2F702230F2
:1016600068F0C8010E940208EF2CF1CF992311F015
:10167000882369F3805E883050F3F3CF803F38F3DE
:10168000815F833020F3EDCF8091F60181608093FC
:10169000F601BACFD91213C09091F001C9120FC050
:1016A000E1100DC08683C8010E94020887E0F8019E
:1016B000A0EFB1E001900D928A95E1F767CFC801E4
:1016C0000E945E08882309F464CFEE2009F461CFFC
:1016D0008091F601803288F02091F0013091F10183
:1016E0003A8329839C828B829091F4019D831E8290
:1016F0008F83CE0101960E94020887E0F801A0EFD7
:10170000B1E001900D928A95E1F70E941D0A0E94B6
:101710000C0A42CF9091F601292F207FA1F4682D69
:101720009B868A86A6017B859E2D0E946B0880EF92
:1017300091E00E94020887E0F50111928A95E9F78D
:101740000E940C0A61CF882309F482CF8091F101B5
:101750008D11B5CF8091F001C812B1CFE110AFCF9C
:101760009683C8010E94020887E0F50111928A95CC
:10177000E9F76ECF483C5105B8F5882309F40CCF42
:10178000FE2CEE2009F405CF8091F1018D111EC0D1
:101790008091F001C8121AC08091F60180FD0DC041
:1017A000982F907F51F08683903F09F47CCF982F3B
:1017B000907F905F8F70892B75CF87E0F801A0EF45
:1017C000B1E001900D928A95E1F742CFC8010E94E5
:1017D0005E08811192CF8091F60181608093F601BD
:1017E000C8010E94020834CF682D9B868A86A60114
:1017F0007B859E2D0E946B0887E0F50111928A95EA
:10180000E9F7C4CEAEE0B0E0E8E0FCE00C94FF20E5
:10181000288739874A875B876C877D878E87CE01CB
:1018200008960E94960A8823B1F06C85662341F0E1
:10183000288539854A855B857D858E850E9475085A
:1018400017E08091B6019091B70189133EC02E96A2
:10185000E3E00C941B2187E0FE013896DE0111962F
:1018600001900D928A95E1F74C85442349F320912C
:10187000B70130E0C9010196877099275091B601F0
:1018800058171906A1F04D8397E0929FD001939FBE
:10189000B00D1124A854BE4FFE01319601900D9257
:1018A0009A95E1F78093B7010E94EA09C9CF0E9497
:1018B0003B081092B7011092B60187E0E0EFF1E02B
:1018C000DF011D928A95E9F7BBCF819FC0011124EA
:1018D00088549E4F0E94960A882309F4B8CFE0915D
:1018E000B6011E9FF0011124E854FE4F2081318182
:1018F000428153816481758186810E94750880913F
:10190000B60190E00196877099278093B60199CF30
:10191000682F80910001909101010E94321C08956E
:10192000682F80910001909101010E94351C08955B
:1019300080910001909101010E94381C08958091CE
:10194000F70186958695869508958091F7018770B1
:1019500008959091F701977081E009F480E008956F
:1019600080910302089590910302982B90930302B3
:101970000895982F90958091030289238093030204
:10198000089510920302089590910202982B90936B
:1019900002020895982F90958091020289238093E6
:1019A0000202089510920202089508950E94D50C33
:1019B00008959091F801292F282331F080958923EB
:1019C0008093F8010E94D60C089508950E94E50CBA
:1019D00008959091F901292F2823281729F0982B91
:1019E0009093F9010E94E60C08959091F901292F36
:1019F000282331F0809589238093F9010E94E60C19
:101A000008958091F901882329F01092F90180E06E
:101A10000E94E60C0895E0910001F091010180918F
:101A200003028083E0910001F09101018081909197
:101A30000202892B80839091F901992381F0E09132
:101A40000001F09101018081892B80838091000148
:101A5000909101010E94E61B81110E94010D80916D
:101A60000001909101010E94801B089508950E9439
:101A7000360D08959091EA0292FF11C098E0899F77
:101A800090011124622B6093F7010E94B3088091AA
:101A9000F7018695869586950E94370D08950E94D8
:101AA000B30808951092F70180E00E94370D089561
:101AB0009091F701809589238093F701282F277053
:101AC00069F4891759F09091EA0292FF07C0869550
:101AD000869586950E94BF080E94520D08959091A8
:101AE000EA0292FB222720F9281769F080FB92F97D
:101AF0009093EA028091E9029091EA020E94B80D67
:101B000082E00E94580D08958091EA0282FB8827A6
:101B100080F991E089270E946F0D089581E00E946D
:101B20006F0D089580E00E946F0D08956FEF7FEFB5
:101B300090E080E00E948D21089590E080E00E9476
:101B40005921863E9E4F19F40E945D15089580E04C
:101B5000089582E090E00E945121089583E090E092
:101B60000E945121089584E090E00E945921089537
:101B7000BC0184E090E00E948D210895AB01BC017E
:101B80008FE090E00E9481210895AB01BC0183E1C8
:101B900090E00E948121089560E070E0CB010E94F6
:101BA000C50D089560E070E0CB010E94BE0D0E945B
:101BB000CC0D0895A8E0B0E0E0EEFDE00C9400212B
:101BC00066EE7EEF90E080E00E948D2160E082E092
:101BD00090E00E946F2160E083E090E00E946F211E
:101BE0001092B50160E074E184E090E00E948D21E4
:101BF00060E086E090E00E946F216FEF87E090E068
:101C00000E946F2140E050E0BA0188E090E00E941D
:101C1000812160E084E290E00E946F2160E087E132
:101C200090E00E946F2160E08CE090E00E946F21C4
:101C300060E08DE090E00E946F2119821A821B8281
:101C40001C821D821E821F82188648E050E068E1D7
:101C500070E0CE0101960E945F2140E050E0BA01A1
:101C600080E290E00E94812180E00E9476150E942F
:101C7000B0150E94D20D2896E2E00C941C210E941F
:101C8000DA0D0895682F8EE090E00E946F2108958C
:101C9000A6E0B0E0EEE4FEE00C94FE200E94ED1C15
:101CA0008C0180910402909105028017910781F0C8
:101CB00019821A820E94ED1C682F49815A81792F5E
:101CC00080E090E00E940B0510930502009304024F
:101CD0002696E4E00C941A210E94F91C60931602E7
:101CE0007093170280931802909319026093120266
:101CF000709313028093140290931502089508952F
:101D00000E94B60308958EE391E10E94D6120E94CC
:101D10007F0E0E94B003089581E008950E948C0E0A
:101D200008950E948C0E0895089508950E94940EBF
:101D30000E94950E08950E945D110E94DF0408958F
:101D40000E94E41C0E94C0150E942E120E949B0E4D
:101D50000E94800E0895A6E0B0E0E1EBFEE00C9456
:101D6000F4200E948E0E81110AC00E94480E0E942B
:101D70006F140E94F2042696EEE00C9410210E944B
:101D8000441226E0822E22E0922E640110E0F60139
:101D9000E190F1906F01812F0E9480111F5F16303A
:101DA00009F44DC0E816F90691F380911A0281FDFD
:101DB0000E9489110E94910E782EF12C6624639462
:101DC0008F2D0E9480118C01F401A190B1904F01E0
:101DD0008A159B0569F1A826B126E12CCC24C39471
:101DE000D12CC5018C219D21892BC1F07720B1F028
:101DF000E982FA820E94ED1C9C838B836D8221E034
:101E0000C8018C219D21892B09F420E049815A8148
:101E10006B817C818D81922F0E940B05E394CC0C09
:101E2000DD1CFAE0EF12DDCFF4013297118300835D
:101E3000F39486E0F812C4CF0E946C0E98CFE81697
:101E4000F90609F0B2CF91CF1F93CF93DF930E9491
:101E50004D10EC018115924508F05FC0C11580E579
:101E6000D80708F0DDC0C03ED10538F5CD3CD1051E
:101E700008F0AEC0C83AD10580F4C53AD10508F0E3
:101E8000A4C0C130D10509F443C0CE010497813A02
:101E90009105F0F1D0E0C0E03BC0CE01885A910935
:101EA0004B97C0F7C85AD0E0CC0FDD1FC35BDE4FA5
:101EB0000990D881C02DD4642BC0C11590E4D907F6
:101EC000F0F4C11520E2D20708F0C4C0C83ED10525
:101ED000F8F0CE019A9581159F41E0F68D2F0E9472
:101EE000EF10182FCE0199270E944D10C12FD0E07E
:101EF000DC2FCC27CC27DF71C82BD92B09C0CE0112
:101F000099270E944D10CC27DF70C82BD92BD06A9F
:101F1000CE01DF91CF911F910895C03882E5D80797
:101F2000B8F5C03692E5D90708F05BC0C03422E5A9
:101F3000D207C8F4C03282E5D80708F04BC02C2F76
:101F40002695269590E2299F900111248C2F83706D
:101F5000C1E0D0E002C0CC0FDD1F8A95E2F7C22BB2
:101F6000D32BDD68D5CF2C2F26952695277080E2C0
:101F7000289F900111248C2F8370C1E0D0E002C013
:101F8000CC0FDD1F8A95E2F7C22BD32BDC68C0CFC4
:101F9000C03C92E5D90760F48C2F8F71C03AD245CE
:101FA000A8F5C82FD0E0DC2FCC27C46FD06AB0CF03
:101FB000CE01805C9245809708F06CCFDC2FCC2757
:101FC000CC27DF71C06FD06AA3CFA497D064A0CF15
:101FD000D0659ECFCF71D0E0DC2FCC27C16FD06A07
:101FE00097CF2C2F26952695277080E2289F900169
:101FF00011248C2F8370C1E0D0E002C0CC0FDD1F14
:102000008A95E2F7C22BD32BDA6882CF0E94EF10B9
:10201000C82FD0E0DC2FCC27CC27DF71D06278CF5F
:102020008C2F8F710E94EF1055E0D695C7955A9569
:10203000E1F7CF70D0E0DC2FCC27282F30E084FFF1
:1020400005C044E0220F331F4A95E1F7C22BD32B82
:10205000D0695ECF8D2F8F710E94EF10182FCE01A7
:1020600099270E944D10C12FD0E0DC2FCC27CC2720
:10207000DF71C82BD92BD2CF462F672F763028F4AB
:102080004A3018F40E946819089580E090E008959D
:102090000E943C100E94240F0895803E9105C1F1DA
:1020A000C8F48133910509F47DC048F48932910563
:1020B00009F46DC08A32910509F47BC00895893313
:1020C0009105D1F082389105B9F08533910509F475
:1020D00059C00895843E9105C1F138F4823E9105BE
:1020E00021F1833E910531F10895863E9105C1F1BC
:1020F000873E9105E1F108952091E902237009F0EE
:1021000065C02091EA0223FF14C089E290E008959F
:102110002091E90220FD43C03091EA0230FF09C05E
:1021200024FF4EC090E080E008952091E90222FD56
:10213000F7CF08952091E90222FD45C03091EA02CF
:1021400030FD44C024FFF5CFEDCF2091EA0221FFFE
:10215000F0CF8091E90284FDE5CF87EE90E008950D
:102160002091E90223FFE5CF24FDDCCFF6CF2091BB
:10217000E90223FD2EC03091EA0231FFE3CF84EE65
:1021800090E008952091E90225FFD3CFBECF2091A2
:10219000E90225FD21C02091EA0223FFCACF89E38D
:1021A00090E0C7CF2091E90226FFC3CF8AE290E0FA
:1021B00008952091E90226FFBCCF81E390E00895C5
:1021C00083EE90E0089582EE90E0089580EE90E036
:1021D000089586EE90E0089585E390E0089590914B
:1021E000E90292FF10C041E0282F2471243009F049
:1021F00040E031E0282F2871283009F030E0431703
:1022000011F02CE0822793FF10C041E0282F2471A9
:10221000243109F040E031E0282F2871283109F0FD
:1022200030E0431711F02CE082273091EA0230FFB2
:1022300010C051E0282F2171213009F050E041E019
:10224000282F2871283009F040E0541711F029E0B8
:10225000822731FF10C041E0282F2171213109F080
:1022600040E031E0282F2871283109F030E0431791
:1022700011F029E0822794FD877E089580E008957B
:102280000E94960D08950E9444122FEF86E791E078
:10229000215080409040E1F700C000000E944412AD
:1022A00080E00E94801180FF04C00E9440110E94C3
:1022B000491D08950E94431108950E949D0D8111AA
:1022C00002C00E943F0E0E94A90D80931A020E9434
:1022D000B30D9093EA028093E9020E945A110E9482
:1022E000AE0D0E9489088091B4010E949E08089555
:1022F00008950E947811089508950E947C11089510
:10230000E82FF0E0EE0FFF1FE950FD4F8081918133
:102310000895089580EA8A95F1F7089500C0089518
:102320000E948A110895F894E82FE295EF70F0E08A
:1023300041A18F7021E030E0B90102C0660F771F24
:102340008A95E2F7CB01962F9095942391A392A1C1
:10235000892B82A378940895CF93DF93CDE8D1E0C1
:1023600089918F3F11F00E94931181E0C339D80702
:10237000B9F7C3E8D1E089918F3F11F00E94931122
:1023800081E0CD38D807B9F7DF91CF910895B0E05B
:10239000A0E0EDECF1E10C94F920EC01B62E062F53
:1023A00010E0C80183579E4F7C01FC0120812F3F24
:1023B00009F44CC0F894E22FE295EF70F0E031A1FF
:1023C0002F7081E090E001C0880F2A95EAF7932FE3
:1023D000982B91A392A18095892382A378940E943F
:1023E0008E11E3E8F1E041E050E0D12CC12C2191C5
:1023F0002F3F89F1A22FA295AF70B0E090968C91FB
:1024000090E02F7002C0959587952A95E2F780FDA0
:1024100022C0CA01C82AD92A440F551F81E0ED38CD
:10242000F80729F7F70180818F3F11F00E9493117F
:1024300061E0C114D10409F460E08B2D0E94901179
:10244000000F111FC00FD11FD982C882CDB7DEB7D0
:10245000E9E00C94152190E080E0DCCF0E94AC1103
:102460008CE0E7EFF2E0DF01982F1D929A95E9F7F3
:10247000EBEEF2E0DF011D928A95E9F786E00E941B
:1024800080120E9479110895ACE0B0E0EAE4F2E134
:102490000C94FD208E010F5F1F4F8CE0F80111920C
:1024A0008A95E9F7F12C6F2DC8010E94C711F394AA
:1024B000F6E0FF12F8CF4CE050E0B8018BEE92E06E
:1024C0000E943B21AC0121E0892B09F420E0452B3F
:1024D00041F08CE0F801ABEEB2E001900D928A95EC
:1024E000E1F746E067EF72E08BEE92E00E94811226
:1024F000182F0E947D11812F2C96E5E00C94192154
:102500000895B0E0A0E0E7E8F2E10C94FB20D82EBB
:10251000E92EF62E072FC42F222349F081E0809365
:102520001D020E94ED1C90931C0280931B021091CF
:102530001D02111107C010E0812FCDB7DEB7E7E013
:102540000C94172180911B0290911C020E94161D71
:10255000059788F3D0E0CC0FDD1FAE016D2D7E2DE9
:102560008F2D902F0E943B21892B51F0AE016D2DB4
:102570007E2D8F2D902F0E94482110921D02DCCFBE
:1025800010E0FBCF0E94791D0E94A00E0E948A1DC0
:1025900008950E948C1C0E94691D0E94830E0E9457
:1025A000C2120E94981D0E94960EFBCF9093950137
:1025B000809394010895282F35EB2303C001112443
:1025C00097FF04C080589109892F089580589F4F24
:1025D000FBCF8091240280FF0DC06091070170E065
:1025E000660F771F6038710570F56115710569F127
:1025F000862F089581FF07C06091070184E0689FDE
:10260000B0011124EFCF6091070182FD0AC08091D3
:1026100023028823A9F02091060160910701821707
:1026200010F088E0ECCF869FC001112433E0880FC2
:10263000991F3A95E1F7622F70E00E94CF20D2CF28
:1026400068E070E0D5CF8FE7089581E0089580912C
:10265000240280FF0CC06091030170E075956795BE
:10266000759567956115710549F1862F089581FF6C
:1026700006C06091030170E075956795F3CF609196
:10268000030182FD0BC0909122029923A1F0609179
:10269000020180910301961738F0682F70E06038CE
:1026A000710500F38FE70895899FC001112470E040
:1026B0000E94CF20F4CF61E070E0D7CF81E0089591
:1026C0008D3C31F40E94E91281958093280208958F
:1026D0008E3C19F40E94E912F8CF8F3C31F40E942D
:1026E000E9128195809327020895803D19F40E9494
:1026F000E912F8CF893D29F40E942713809329021B
:1027000008958A3D21F40E9427138195F7CF8B3DD0
:1027100031F40E942713819580932A0208958C3DFD
:1027200019F40E942713F8CF9FE2980F983070F4A5
:10273000815D990B21E030E001C0220F8A95EAF714
:1027400080912602822B8093260208958D3D31F4DC
:102750008091240281608093240208958E3D21F4AB
:10276000809124028260F7CF8F3DB9F780912402D7
:102770008460F1CF409127028D3C59F4809128026A
:1027800087FF0DC01092280241110BC01092230246
:1027900008C08E3C81F48091280218169CF34423D3
:1027A00081F08091290290912A02892B09F05AC068
:1027B0001092220208958F3C49F447FFF0CF109207
:1027C0002702809128028111ECCFE0CF803D19F4DF
:1027D0001416ACF3E4CF90912902893D29F419161F
:1027E000F4F610922902DBCF8A3D19F497FFD7CF78
:1027F000F8CF90912A028B3D29F497FFD0CF109209
:102800002A02CDCF8C3D19F41916CCF3C8CF9FE224
:10281000980F983090F4815D990B21E030E0B90178
:1028200002C0660F771F8A95E2F7CB0180959091E1
:102830002602892380932602B2CF8D3D31F4809108
:1028400024028E7F80932402AACF8E3D21F48091B2
:1028500024028D7FF7CF8F3D09F0A1CF8091240214
:102860008B7FF0CF08950E94ED1C209127023091BC
:102870002802232B21F080932002909321022091A3
:10288000290230912A02232B21F080931E0290937B
:102890001F0285E292E00E948B1B089586E0E5E22C
:1028A000F2E0DF011D928A95E9F71092230210925F
:1028B0002202109224020895FC01828181110DC030
:1028C000838181110AC08481811107C081E09581D3
:1028D000911101C080E08170089581E0FCCFA6E0F5
:1028E000B0E0E5E7F4E10C94FF2086E0E5E2F2E0F9
:1028F000DE01119601900D928A95E1F71092270260
:10290000109228021092290210922A028B819C8137
:10291000892B89F080912002909121020E94161D3E
:102920009C01809123028823C9F19091080192179C
:10293000130608F440C08D819E81892B91F080910F
:102940001E0290911F020E94161D9C01809122027E
:10295000882309F46AC0909104019217130608F4C1
:1029600072C0BE016F5F7F4F85E292E00E94401C03
:10297000811105C085E292E00E945C1481110E94E1
:10298000331486E0FE013196A5E2B2E001900D928B
:102990008A95E1F72696E3E00C941B21409109010A
:1029A0009AE0499FA00111244217530720F68F5F38
:1029B0008093230202C08F3FD1F71B81112359F06E
:1029C0000E94E9129FEF11160CF491E0899F802D6F
:1029D0001124809327021C81112359F00E94E912CF
:1029E0009FEF11160CF491E0899F802D11248093A4
:1029F000280280912702882309F49DCF1091280294
:102A0000112309F498CF0E94DB12882351F08093A0
:102A10002702812F0E94DB12882329F0809328024D
:102A20008ACF81E0F4CF81E0F9CF409105019AE0AF
:102A3000499FA00111244217530708F092CF8F5FDE
:102A40008093220202C08F3FD1F71D81112359F0DC
:102A50000E9427139FEF11160CF491E0899F802D9F
:102A60001124809329021E81112359F00E942713FB
:102A70009FEF11160CF491E0899F802D1124809313
:102A80002A0280912902882309F46BCF10912A022F
:102A9000112309F466CF0E94DB12882351F0809342
:102AA0002902812F0E94DB12882329F080932A02B9
:102AB00058CF81E0F4CF81E0F9CF85E290E00E9429
:102AC0005121813289F486E290E00E9451218231C5
:102AD00059F487E290E00E94512191E0873209F099
:102AE00090E0892F8170089580E0FCCFCF93C82FAC
:102AF0006FEF811161E285E290E00E946F216FEF3C
:102B0000C11162E186E290E00E946F216FEFC11176
:102B100067E287E290E00E946F21CF9108950895C7
:102B2000A4E0B0E0E6E9F5E10C94002188E290E051
:102B30000E945121282F30E050E040E0CA01B90145
:102B40002496E2E00C941C210895CF93C62F0E9496
:102B5000A4156C2F88E290E00E946F21CF91089518
:102B600080E00E94761560E070E0CB010E94A51520
:102B70000E9400190E94C31981E00E9476150895F1
:102B80000E948F150E9490150E94A4150E945D1549
:102B9000811102C00E94B015089508959C01FB01A7
:102BA0008581882351F0A90157574038510530F4E9
:102BB000822F0E94D31980E0089581E008952FEFBD
:102BC000FC01208308950E94DF15089580E0089598
:102BD000AEE0B0E0EEEEF5E10C94FA208D839E833A
:102BE000162F8D819E810E94E615811115C0AD8141
:102BF000BE81EC91E150E331F0F4F0E0EF54FE4D92
:102C00000C94E320ED81FE8111828CE08283612FA0
:102C10008D819E810E946B1E2E96E8E00C941621F9
:102C2000AD81BE8111968C91833091F148F4813051
:102C3000B9F0823001F18FEFED81FE818083E7CF23
:102C40008430C9F7AD81BE8112961C9212971396FB
:102C50001C92139714961C92149715961C92D7CF1A
:102C60000E94F91C0E94E920ED81FE81628373833A
:102C700084839583CCCF0E9490150E94E920AD817A
:102C8000BE8112966D937D938D939C931597BFCFC4
:102C9000ED81FE810281E02EF12C6F01025FF6E0F2
:102CA000EF16F10408F0B3CF8E2D0E948011D601EB
:102CB00013969C93139714968C93BFEFEB1AFB0A11
:102CC000E2E0CE0ED11C0E11EACFA1CFAD81BE81C4
:102CD00011968C91823049F0853009F0ACCFED81AE
:102CE000FE8182810E94CD1592CFAD81BE81129668
:102CF0008D919D910D90BC91A02DBC01CD010E94A4
:102D0000E9200E94A51583CFAD81BE8113964C9119
:102D1000139712966C91129711968C910E94C2187B
:102D2000982789279827ED81FE81958384836FCF2B
:102D3000AD81BE8114962D913C91159732272327A2
:102D4000322713964C91139712966C911297119605
:102D50008C910E94E4185BCF0E94001958CF612F1C
:102D60008D819E810E94E31552CF0E947419ED81DE
:102D7000FE8181834CCF0E94761998278927982756
:102D8000AD81BE8112969C938E93119740CFED81B9
:102D9000FE81638170E081819281AF014C5F5F4F62
:102DA0009827892798270E94791931CFAD81BE8154
:102DB00013966C91139770E011968D919C911297D8
:102DC000AD014C5F5F4F9827892798270E949E1975
:102DD0001ECF0E94C3191BCF0E94B018C8CFAD816F
:102DE000BE8113966C91139770E011968D919C9112
:102DF0001297AD014C5F5F4F9827892798270E9453
:102E0000201905CFED81FE81638170E0818192817F
:102E1000AF014C5F5F4F9827892798270E9444197C
:102E2000F6CECF93DF93EC01FB018581882309F473
:102E3000D2C09E0130572332310508F0B2C00E9443
:102E4000B30D9093EA028093E902FE01E150F0474E
:102E5000E232F10520F4EC53FE4D0C94E320809116
:102E6000E90281608093E90293C08091EA02886060
:102E70008093EA028DC08091E9028260F3CF809155
:102E8000E9028460EFCF8091E9028860EBCF809106
:102E9000EA028160EDCF8091EA028260E9CF809101
:102EA000E9028061DFCF8091E9028062DBCF80910F
:102EB000E9028064D7CF0E943B088091E9028068D4
:102EC000D1CF8091E9028C60CDCF8091EA028360FE
:102ED000CFCF8091E9028E7FC5CF8091EA02877FB4
:102EE000C7CF8091E9028D7FBDCF8091E9028B7FB2
:102EF000B9CF8091E902877FB5CF8091EA028E7FBA
:102F0000B7CF8091EA028D7FB3CF8091E9028F7EA7
:102F1000A9CF8091E9028F7DA5CF8091E9028F7BB7
:102F2000A1CF0E943B088091E9028F779BCF8091CF
:102F3000E902837F97CF8091EA028C7F99CF8091BD
:102F4000E90282FB992790F921E0922790FB82F910
:102F500090FB83F987CF8091EA02982F909591702A
:102F60008E7F892B90FB81F983CF9091E902892F85
:102F70008F7B96FF806476CF0E943B089091E90298
:102F8000892F97FB87F980586DCF81E00E94420E10
:102F90008091E9029091EA020E94B80D0E943B08DC
:102FA00080E0DF91CF91089580E0F0CF9091E90229
:102FB000892F8F7E94FF806155CF9091E902892FF0
:102FC0008E7F90FF81604ECF9091EA02892F877F9C
:102FD00093FF88604DCF81E0E4CFB0E0A0E0E3EF65
:102FE000F7E10C94FB20E82FF0E0E85BFD4FD49074
:102FF000282F26952695269530E0F901E851FD4FBA
:103000000491877010E0082E02C0159507950A9468
:10301000E2F701701127F901E852FD4FE490F12C1D
:10302000082E02C0F594E7940A94E2F791E0E922B1
:10303000FF24F901E853FD4FC491D0E002C0D595BB
:10304000C7958A95E2F7C170DD270115110519F0C2
:1030500081EE0E944E05E114F10419F086EE0E9403
:103060004E058D2D0E94E505E114F10419F086EE60
:103070000E949A050115110519F081EE0E949A052A
:10308000CD2B19F08CE20E94E505CDB7DEB7E7E065
:103090000C941721EF92FF920F931F93CF93DF931E
:1030A000EC01162F0AE08881882309F454C081308E
:1030B00009F04EC08981813099F47E0122E0E20E50
:1030C000F11C8A810E94E505E7012196812F81503C
:1030D00050F3EFE9FFE03197F1F700C00000F7CFC0
:1030E000823041F47E0182E0E80EF11C8A810E9468
:1030F0004E05EACF833041F47E01E2E0EE0EF11C92
:103100008A810E949A05E0CF843011F02196DDCFAC
:103110002A81229690E080E0AE014F5F5F4F2053FE
:10312000330B2A30310548F0019778F2EFE9FFE0E0
:103130003197F1F700C00000F7CF089FB001099F59
:10314000700D1124C901860F971F2981EA01E4CF70
:103150000E94ED17BACFCDB7DEB7E6E00C94182188
:1031600084E0089550E0440F551F94E1699F400D9D
:10317000511D112498E7899F400D511D1124CA014A
:10318000899608950F931F93CF93DF938430C8F4EB
:103190006630B8F44A30A8F40E94B2188C010E943C
:1031A0005121C82FD0E0DC2FCC27C80101960E9406
:1031B00051219E01282BC901DF91CF911F910F91C1
:1031C000089590E080E0F8CF0F931F93CF93DF93A3
:1031D000122F032F843078F4663068F44A3058F4A4
:1031E0000E94B218EC01602F0E946F21612FCE0166
:1031F00001960E946F21DF91CF911F910F91089549
:103200001F93CF93DF93D0E0C0E011C0412F6C2F0C
:103210008D2F0E94C8039C01412F6C2F8D2F0E947F
:10322000E4181F5F1A3091F7CF5FC63011F010E03D
:10323000EDCFDF5FD43041F7DF91CF911F9108953B
:10324000EF92FF920F931F93CF93DF93EC018A01CC
:103250007C01E60EF71ECE018996CE15DF0529F416
:10326000CDB7DEB7E6E00C941821C03E21E0D207CE
:1032700040F40E945121F80180830F5F1F4F219677
:10328000EACFF8011082F9CFB0E0A0E0EAE4F9E17A
:103290000C94FA208C016A017C01E60EF71EEC0109
:1032A000CE018996CE15DF0529F4CDB7DEB7E8E06B
:1032B0000C941621C03E21E0D20740F4FE01E01B31
:1032C000F10BEC0DFD1D60810E946F212196E8CF6E
:1032D000843038F4663028F44A3018F40E94C2185A
:1032E000089580E090E0089580E1089587EF91E0EF
:1032F0000895EF92FF920F931F93CF93DF93EC010A
:103300008A017C01E60EF71ECE01875F9D4FCE1528
:10331000DF0529F4CDB7DEB7E6E00C941821C73FEE
:1033200021E0D20740F40E945121F80180830F5F11
:103330001F4F2196E9CFF8011082F9CFB0E0A0E04D
:10334000E4EAF9E10C94FA208C016A017C01E60EB2
:10335000F71EEC01CE01875F9D4FCE15DF0529F4E6
:10336000CDB7DEB7E8E00C941621C73F21E0D207C5
:1033700040F4FE01E01BF10BEC0DFD1D60810E948D
:103380006F212196E7CFCF93DF93C9E0D2E060E0D1
:10339000CE010E946F212196C11584E0D807B9F7AC
:1033A000DF91CF910895A8E0B0E0E9EDF9E10C9448
:1033B000FA20F82E2FE0281708F472C08FEF93E060
:1033C0000E94512181116CC009E012E0F11038C057
:1033D0001A821982FE01339686E0DF011D928A95DA
:1033E000E9F76801BFEFCB1ADB0AC8010E9451213F
:1033F00089831A82882309F453C08130D1F478017B
:1034000022E0E20EF11CC6010E9451218A8388232A
:1034100009F446C09FEF980F9330F8F4680183E0F9
:10342000C80ED11CC7010E9451218B838823C1F192
:103430001C8260E0CE0101960E944A188601D1CF1D
:10344000011584E0180761F1C8010E945121811122
:1034500001C0FA940F5F1F4FB9CF8430D1F402E05E
:1034600010E0C701AFEFEA1AFA0A0E945121E1E029
:10347000F0E0EC0FFD1FE00FF11F8083882381F047
:103480008C3749F4E2E0F0E0EC0FFD1FE00FF11F94
:1034900010826701CECF0F5F1F4F0730110509F76C
:1034A0002896E8E00C941621CF93DF93EB01863148
:1034B0009C4711F50E94B00C9D81992399F08A7A5E
:1034C00091E009F490E090932B02811109C089E208
:1034D0000E94880C0E940B0D80E0DF91CF9108952F
:1034E00085E3F6CF80912B02811104C089E20E940E
:1034F000900CF0CF85E3FBCF81E0EFCF0F931F93CC
:10350000CF93DF93C42FD22FFC0185818823C9F08C
:1035100040932E020E94ED1C90932D0280932C026A
:1035200080E28C0F883040F4C77081E001C0880FC2
:10353000CA95EAF70E94EE05DF91CF911F910F9196
:10354000089510912E02141332C080912C02909194
:103550002D020E94161D883C910548F5C0E2CD0F52
:103560001D17B9F080E2810F883040F4177081E0B8
:1035700001C0880F1A95EAF70E94F505C83048F493
:1035800081E09D2F977001C0880F9A95EAF70E94FD
:10359000EE05802F0E94E505C83070F6D77081E0F7
:1035A00001C0880FDA95EAF70E94F505C5CF80E2E1
:1035B0008C0F883008F6C77081E001C0880FCA956B
:1035C000EAF7F2CF0F93FC01CB01E851FC47E7305B
:1035D000F10590F5EA51FE4D0C94E32006E221EE50
:1035E00041EE6AE17CE70E947E1A80E00F91089527
:1035F00007E225EE45EE6BE17CE7F5CF06E221EE32
:1036000040EE68E17CE7EFCF07E225EE44EE69E1AA
:103610007CE7E9CF06E221EE42EE6CE17CE7E3CF06
:1036200007E225EE46EE6DE17CE7DDCF08E221E022
:1036300045EE6EE17CE7D7CFFB018581882319F049
:1036400010922E02D3CF81E0D1CF1F93CF93DF937F
:103650009C01FB0127378CE7380751F0C1E0283780
:103660003C47D1F4C581CC2369F10E94681B05C099
:10367000C581CC23B1F00E94651B0E94B3080E9453
:103680006B1BD82F0E94681BC82F0E94651B4D2FF3
:103690006C2F0E94E009C0E08C2FDF91CF911F9129
:1036A00008950E94651B0E94BF080E946B1B182F83
:1036B0000E94681BD82F0E94651B412F6D2F0E940E
:1036C000E009EACF0E94681BEECF80910C010895BB
:1036D00080910B01089580910A010895909334021E
:1036E000809333020895E0913302F09134023097D1
:1036F00029F00190F081E02D0995089580E008956A
:10370000E0913302F0913402309721F00280F3818E
:10371000E02D09950895DC01E0913302F091340227
:10372000309739F082E08C930480F581E02DCD0153
:1037300009950895A3E0B0E0E0EAFBE10C940021D4
:103740009C01809131029091320282179307A1F07F
:103750003093320220933102E0913302F09134022F
:10376000309751F083E089833B832A830680F78179
:10377000E02DCE01019609952396E2E00C941C21E0
:10378000A3E0B0E0E6ECFBE10C9400219C01809109
:103790002F029091300282179307A1F030933002EC
:1037A00020932F02E0913302F0913402309751F0D0
:1037B00084E089833B832A830680F781E02DCE0154
:1037C000019609952396E2E00C941C21AC019C0122
:1037D0002E5F3F4F485F5F4F80E02417350709F4A5
:1037E0000895F90191919F019923B9F38F5FF5CF66
:1037F0009C01662351F0FC013296285F3F4F819176
:10380000861729F0E217F307D1F780E0089581E0E9
:1038100008959C01FC0132968FEF90E0419146178C
:1038200051F08F3F19F4411101C0892F9F5F9630ED
:10383000A9F78F3F09F40895280F311D87FD3A95A8
:10384000F901628308959C01FC013296285F3F4F85
:103850008191861303C0DF0111971C92E217F307D1
:10386000B9F708950E94091C08950E94231C089529
:10387000FC01329686E0DF011D928A95E9F70895F2
:10388000DC01FB0111969C9111978181981322C054
:1038900012968C911297882319F0928189131AC07D
:1038A00013968C911397882319F09381891312C072
:1038B00015968C911597882319F0958189130AC064
:1038C00014969C91992321F081E02481291303C04F
:1038D00080E001C081E081700895089508950E94FC
:1038E0006E1C0895089508950E946D1C0895CF934D
:1038F0000E94721C0E9444120E94731CC0E08C2F14
:103900000E948011892B31F4CF5FC630C1F780E06F
:10391000CF91089581E0FCCF08951F921FB61F92AA
:1039200011248F939F93AF93BF93809135028111A0
:1039300013C08091030390910403A0910503B091FB
:1039400006034196A11DB11D8093030390930403C8
:10395000A0930503B0930603BF91AF919F918F9100
:103960001F901FBE1F90189580913802882331F157
:103970000E94C2041092350288E190E020E40FB664
:10398000F894A895809360000FBE2093600083B7E1
:10399000817F846083BF83B7816083BF789488957B
:1039A00083B78E7F83BF0FB6F894A895809160008F
:1039B000886180936000109260000FBE08950E949D
:1039C0003B080E94C704089582E084BD93E095BD42
:1039D0009AEF97BD80936E0008952FB7F894809169
:1039E000030390910403A0910503B09106032FBF38
:1039F0000895A4E0B0E0EFEFFCE10C9400218FB754
:103A0000F8942091030330910403409105035091F1
:103A1000060329833A834B835C838FBF69817A8154
:103A20008B819C812496E2E00C941C219C014FB771
:103A3000F8948091030390910403A0910503B09141
:103A400006034FBF821B930B089578941F921FB6F5
:103A50001F9211248F939F93AF93BF938091030381
:103A600090910403A0910503B09106030196A11D56
:103A7000B11D8093030390930403A0930503B093B7
:103A80000603BF91AF919F918F911F901FBE1F9012
:103A9000189588E198E00FB6F894A8958093600097
:103AA0000FBE90936000A895F894D8E0CEEF28E37D
:103AB000299320E0299314BEFFCF089588E198E070
:103AC0000FB6F894A895809360000FBE90936000A5
:103AD000FFCF0E94ED1C909337028093360280E85E
:103AE00090E00FB6F89480936100909361000FBE50
:103AF00008950E94B420539A80E0815019F453989D
:103B000078940895A895EFE9FFE03197F1F700C0A8
:103B10000000F3CF0E94A11E0E946E1B2FEF80E7D2
:103B200092E0215080409040E1F700C000000895ED
:103B300080912E03882369F110922E030E94ED1CC0
:103B4000909337028093360280913802882341F0A7
:103B5000109238020E94DF1C8091380281111DC032
:103B60000E94BC1F80913403882329F080911203A6
:103B700084FD0E94AB0E0E940F1E0E94BC1F80910C
:103B80003403882329F080911E0384FD0E94951E32
:103B9000089580913802882301F10E94B41C0E948C
:103BA000771C8823A9F3F8942AB15B9A822F8C6042
:103BB0008AB99BB13CE093279BB94FE788E391E03A
:103BC000415080409040E1F700C000008BB1832756
:103BD0008BB92AB95B9878940895809136029091B8
:103BE00037020E94161D069708F4B6CF81E0809335
:103BF00038020E94B41CB0CF8091E8020895209151
:103C00004B0324FF03C063E00E94B21F089520917C
:103C10004B0324FF03C066E00E94B21F0895CF93B8
:103C2000DF93CAE0D0E08091120384FF1AC0809134
:103C3000650290916602981789F028E0829FC00182
:103C4000112468E089599D4F0E94AD1F8091650243
:103C500090E001968F70992780936502DF91CF9154
:103C600008950E94BC1F8FE99FE00197F1F700C003
:103C700000002197C1F6F2CFCF93DF93D82FC92F41
:103C8000A0916602B0E0CD0101968F709927209136
:103C90006502281781F093E0AA0FBB1F9A95E1F700
:103CA000A959BD4F98E0ED2FFC2F01900D929A95E8
:103CB000E1F7809366020E94BC1F0E940F1E88E0FD
:103CC000ED2FFC2FADE5B2E001900D928A95E1F762
:103CD000DF91CF9108950F931F93CF93DF93EC0162
:103CE0006032D9F48C01005E1F4F02C00E94BC1FDD
:103CF00080911E0384FFFACF68E0CE010E94B71FB7
:103D00002896C017D107A1F780911E0384FF0AC02F
:103D100060E090E080E00E94B71FDF91CF911F919B
:103D20000F9108950E94BC1FEFCF80913C0280321A
:103D300039F460E28DE392E00E94E81510923C02B3
:103D400008958DE091E00895FC01808180768032B5
:103D5000F1F48181813061F484819581892BB9F4FA
:103D60008DE592E09093300380932F0388E00895CF
:103D7000823041F487EE92E09093300380932F03DA
:103D800081E008958A3029F483818093E70280E0FE
:103D900008958930E1F7828193818115924069F419
:103DA00084819581892B49F481E080933B0286814F
:103DB000978190933A02809339028FEF0895FC0126
:103DC0008091390290913A02892B61F080913B02F7
:103DD000813041F490819093E80210923A0210925F
:103DE000390208958FEF0895683019F010923C025F
:103DF000089520913C022931C8F7FC01A22FB0E0C0
:103E0000A35CBD4F089631913D93E817F907D9F7A8
:103E1000285F20933C020895FC018381833081F167
:103E200030F48130E9F0823019F180E00895813278
:103E300009F445C08232C9F724813581213031052A
:103E400009F452C02230310509F455C0232B69F71B
:103E50008AE294E09093300380932F0384E40895E2
:103E600083E593E09093300380932F0382E10895DC
:103E700088EF92E09093300380932F038BE50895B1
:103E80008281813061F0823091F08111CECF89E85A
:103E900093E09093300380932F0384E008958DE79F
:103EA00093E09093300380932F038AE0089585E692
:103EB00093E09093300380932F0386E108958281ED
:103EC000813061F0823069F08111AFCF8AE093E0F8
:103ED0009093300380932F0389E0089583E293E069
:103EE000F7CF83E493E0F4CF2DE833E03093300351
:103EF00020932F0308958FEA93E0909330038093EB
:103F00002F038BE708951F93CF93DF93782F162FFE
:103F1000EA01888184FF1EC0898128E8822789837D
:103F2000AE014E5F5F4FFA01272F392F710FD90174
:103F30002F5F3F4F8C918193872F821B1816BCF304
:103F4000612FCA010E946B021C5F1883DF91CF9121
:103F50001F9108958AE58883E3CF42E153E00E94F0
:103F6000831F08954BE453E00E94831F08954EE1A0
:103F700053E00E94831F0895CF93DF936091310334
:103F8000635067FD12C080912D03CCE0D0E0C81BC8
:103F9000D109CB5CDC4F80912C03803108F059C0F3
:103FA000CE010E94F41E109231038091160184FF0D
:103FB00043C0809115018F3F09F43EC0C82F89305E
:103FC00008F0C8E0982F9C1B90931501909107036F
:103FD00028E8922790930703882301F180912F030B
:103FE0009091300320912B0326FFB2C0FC012C2FAF
:103FF00048E053E03491DA013C934F5F5F4F3196D4
:104000002150C1F79C012F5F3F4F8FEF8C0F820F24
:10401000932F911D9093300380932F036C2F88E092
:1040200093E00E946B0284E08C0FC83019F09FEF80
:10403000909315018093160184E199B19C7031F43D
:104040008150D9F71092320310922A03DF91CF9159
:1040500008958D3209F069C0683009F0A4CF83EC6F
:10406000809307038AE58093160110922B038881C1
:10407000807671F0CE010E94A41E8F3FC1F498811A
:1040800097FD8E8190E890932B03809315018BCF41
:104090002A81109210039981911111C0109211037D
:1040A00020E133E082E03093300320932F039F819F
:1040B0009111EBCF9E81981740F7892FE6CF95306D
:1040C00029F42093320320E133E0EDCF963099F4C8
:1040D0009B81913021F4CE010E940C1F08C09230C8
:1040E000D1F39330C1F39132B1F39232A1F390E462
:1040F00090932B03C2CF983089F0993019F4209314
:104100003403E1CF9A3071F09B30E9F69BE4909351
:10411000130390934C0390931F03D5CF24E333E014
:1041200081E0C1CF20E133E0FBCF80912B0387FFFB
:104130003ACFCE010E94DF1E8F3F21F48EE18093A3
:10414000160131CF882309F42ECF109215012BCF01
:10415000DC012C2F48E053E0FA013D9130834F5FA2
:104160005F4F2150C9F74ECFCF93DF93E9E6F0E0E0
:10417000808188608083E99AC2E1D3E08BE48983FF
:10418000ABE4B3E011968C931197EEE1F3E08183F9
:104190008AE588838C938083DF91CF91089597FB84
:1041A000072E16F4009407D077FD09D00E9427212E
:1041B00007FC05D03EF4909581959F4F089570952A
:1041C00061957F4F0895EE0FFF1F0590F491E02D4C
:1041D00009946927962769277827872778270895DC
:1041E0002F923F924F925F926F927F928F929F9207
:1041F000AF92BF92CF92DF92EF92FF920F931F93F5
:10420000CF93DF93CDB7DEB7CA1BDB0B0FB6F894A5
:10421000DEBF0FBECDBF09942A88398848885F84E5
:104220006E847D848C849B84AA84B984C884DF8056
:10423000EE80FD800C811B81AA81B981CE0FD11D3A
:104240000FB6F894DEBF0FBECDBFED010895AA1BD7
:10425000BB1B51E107C0AA1FBB1FA617B70710F071
:10426000A61BB70B881F991F5A95A9F780959095A3
:10427000BC01CD010895FB01DC0104C08D910190CA
:10428000801921F441505040C8F7881B990B0895BC
:10429000FB01DC0102C001900D9241505040D8F763
:1042A0000895F999FECF92BD81BDF89A992780B5FE
:1042B0000895A8E1B0E042E050E00C949521DC01C3
:1042C000A40FB51F4150504048F0CB01840F951FFB
:1042D0002E910E94702141505040D0F70895262F12
:1042E000F999FECF92BD81BDF89A019700B40216EC
:1042F00039F01FBA20BD0FB6F894FA9AF99A0FBE9A
:1043000008950396272F0E9470210E946F21252F68
:104310000E947021242F0C9470210196272F0E9457
:1043200070210C946F21DC01CB01FC01F999FECFC7
:1043300006C0F2BDE1BDF89A319600B40D9241502D
:104340005040B8F70895F894FFCF3A063A068C0625
:104350008C06F1060D076906690612077B078A07B6
:104360008A0702161016661684169816AC16AF1633
:10437000AF16AF161B161B16B516BB16C716D616EC
:10438000E916EC16EF1602176917DD1771173B17C0
:104390003F1775174317791785174F17D6175317F8
:1043A000891757178D17B5175B179117BC1761172A
:1043B00097179F1747177D174B17811765179B177F
:1043C000AB17C517D41735176D17E417FE1A041B62
:0A43D000EE1AF81A0A1B101B161B48
:1043DA00FA01280850011E0A1401030201FC1D3CBF
:1043EA001E071EFF1DFF5AE200E900EA00B500B6EB
:1043FA0000B700CD008301CC008A0192019401210B
:10440A0002230224022502260227022A02B300B44A
:10441A00006F0070009F01CB019F02A002E200E939
:10442A0000EA00B500B600B700CD008301CC008ACF
:10443A000192019401210223022402250226022765
:10444A00022A02B300B4006F0070009F01CB019FE3
:10445A0002A0023097969594919061626360353418
:04446A0033323100B8
:00000001FF
