:107000006BC00000AAC000008EC000008CC0000051
:107010008AC0000088C0000086C0000084C0000054
:1070200082C0000080C000007EC000007CC0000064
:107030007AC0000078C0000076C0000074C0000074
:1070400072C0000070C000006EC000006CC0000084
:107050006AC0000068C0000066C0000064C0000094
:1070600062C0000060C00000EC2DFD2DB7B6B0FC82
:10707000FDCF27BFE895B7B6B0FCFDCF21E1B7B68D
:10708000B6FCF4CF08950902120001010080320914
:10709000040000000000000012011001FF000008C1
:1070A000C016DC050201010200010E035500530069
:1070B00042006100730070001C03770077007700C6
:1070C0002E00660069007300630068006C002E00EB
:1070D000640065000403090411241FBECFEFD8E04B
:1070E000DEBFCDBF24B7D8E0CEEF39913833399128
:1070F00009F03FEF30933C0120933B0111E0A0E009
:10710000B1E0E4E7F8E702C005900D92A630B107C0
:10711000D9F721E0A6E0B1E001C01D92AB33B20780
:10712000E1F77CD1A5C36CCFA82FB92F80E090E008
:1071300041E050EA609530E009C02D918227979593
:10714000879510F084279527305EC8F36F5FA8F30A
:107150000895EADF8D939D930895CF93CFB7CF9392
:10716000DF93C3954B9BE9F74B9B0BC04B9B09C02F
:107170004B9B07C04B9B05C04B9B03C04B9B01C067
:1071800089C06F93C0911E01DD27CB5DDE4F2F9329
:1071900065E54B9B03C02F916F91E6CF0F931F9333
:1071A0004F9320E040E15F9309B10C7003FB27F996
:1071B0003F9350E03BE039C01C7040642F77012FB3
:1071C0005F5F1EC0406819B11C702F7752501FC0FE
:1071D000406409B12F770C70D1F15F5F00C023C00C
:1071E000406219B12F771C7091F15F5F00C025C01C
:1071F0000C701027515012F45D5F0000115027955C
:107200002C3F19B1C8F61C700127015027952C3F5F
:10721000C8F64227499309B10C7010274F731150DB
:1072200027952C3FA8F64695469519B11C7079F024
:107230000127015027952C3F98F66B5A60F3315087
:1072400009B1B0F600C011E01CBB002717C03B50CD
:107250003195C31BD04011E01CBB0881033CF9F001
:107260000B34E9F020911C011981110F1213EDCF9D
:10727000093651F10D3211F0013E39F70093230127
:107280003F915F914F911F910F912F916F91CCB3CF
:10729000C0FD67CFDF91CF91CFBFCF9118952091DF
:1072A0002301222369F310912101112339F5343090
:1072B0003AF13093210120931D0110911E013BE012
:1072C000311B30931E011CC0009121010130B4F428
:1072D0000AE53091010134FD14C000930101C1E1C0
:1072E000D1E013C0052710E000C000000BB91AC0A0
:1072F000052710E0221F1DC010E021C04AE502C092
:1073000032ED432FC4E1D0E032E01AB11C605B9A49
:107310000BB11AB95CE020E865E320FF05270BB943
:10732000279517951C3FF0F66695B8F7B1F720FF43
:1073300005270BB9279517951C3FD0F6279517956C
:1073400017FF052700001C3F0BB9B0F629913A95AD
:1073500019F7037F10912201110FC651D0400BB9CC
:1073600011F010931C0111E01CBB08601AB1137FCF
:10737000402F437F54E05A95F1F70BB91AB94BB936
:107380007FCFFC01438134818381948198278927B1
:1073900098272281203339F43370E32FF0E0EE5F39
:1073A000FE4F80810895283561F489E0E1E0F0E046
:1073B000442371F089E0E3E0F0E0483049F080E0F8
:1073C0000895203579F4411107C089E0F0E0E0E04C
:1073D000809357008491089589E0E2E0F0E048301E
:1073E00071F7F6CF203229F4880F991FFC018491A0
:1073F0000895283229F4FC01EE0FFF1F3196F7CFD4
:10740000203A09F41FC2203C19F4658123D2D7CF5A
:107410002F3FA9F681EF80930F01D1CF1AB880E2F8
:107420008BB981E085BF82E085BFE0E0F1E7A895F8
:1074300031978040E1F780913B01877F21F4809173
:107440003C01882371F04D9B0CC0F894539A1BB8F3
:107450001DBA1092690081E085BF15BEF0E0E0E042
:1074600009958EEF80930F0114BE0FB6F894A8957E
:1074700080916000886180936000109260000FBE70
:1074800080916900826080936900E89A539A8CE049
:10749000E0E0F5E3A89531978040E1F753987894C0
:1074A00010912101135017FD5AC080911E01CCE0AC
:1074B000D0E0C81BD109CB5DDE4F80911D018D321C
:1074C00009F00BC1183009F048C083EC809311011A
:1074D0008AE580930101109210013881832F807614
:1074E0009981882309F49BC046E051E05093200124
:1074F00040931F01933069F4CE0143DF809309016B
:1075000084E09F81911127C09E81981720F5892FD3
:1075100022C0953009F4DFC09A3009F4DCC08CEF4A
:10752000890F863008F070C04A815B8150930E014C
:1075300040930D01993009F46EC08E8180930C0147
:107540002D81227020930B0190930A0137FF8FEF5A
:1075500090E8909310018093000110922101809196
:10756000010184FF36C0809100018F3F91F1182FF7
:10757000893008F018E0982F911B909300019091AA
:10758000110128E89227909311018823A9F03091E6
:10759000100137FF2EC180910C01811708F4182FBC
:1075A000811B80930C01D0900A0100E082E1E82E5B
:1075B00081E0F82E101305C1612F82E191E0C9DD51
:1075C00084E0810F183019F09FEF909300018093B1
:1075D000010184E199B19C7031F48150D9F7109286
:1075E000220110921C0180910F01803108F41FC10B
:1075F0004D9B05C080910F01805180930F018091B8
:107600000F0181114DCF21CF80910F01923029F4CC
:107610008E7F80930F0180E074CF8160FACF2A8142
:1076200010921A0191110AC010921B012AE131E057
:1076300082E03093200120931F0163CF953029F41D
:10764000209322012AE131E0F4CF963099F59B8115
:10765000913059F488E990E79093200180931F01BD
:1076600082E190E4909310014CCF923019F486E8B7
:1076700090E7F2CF9330A9F7211108C084ED90E78D
:107680009093200180931F0184E0EBCF213041F4DF
:1076900088EB90E79093200180931F018CE1E1CF6C
:1076A0002230F9F68AEA90E79093200180931F0137
:1076B0008EE0D7CF983059F0993019F420932401F7
:1076C000C1CF81E09A3009F4BDCF80E0BBCF24E286
:1076D00031E081E0AECF81E014CF8091100187FFCF
:1076E0003CCF00910C01011708F4102F011B0093EF
:1076F0000C01F12CF11628F001112FCF109200018E
:107700002CCF80910D0190910E0120910A0127301C
:1077100058F069919C012F5F3F4F30930E012093E9
:107720000D0198D0F394E6CF8115904738F7F39484
:10773000F394F894E0910D01F0910E0129913991A3
:1077400081E0090180935700E89511247894809195
:107750000D0190910E01029690930E0180930D0100
:107760008F779927892B51F00111C4CFF11608F4B6
:10777000C1CF80910B01882309F4BCCFF894E0912C
:107780000D01F0910E01329783E080935700E89548
:10779000789407B600FCFDCFF894E0910D01F091CC
:1077A0000E01329785E080935700E895789407B6EC
:1077B00000FCFDCFF89481E180935700E895789420
:1077C00099CFC0910D01D0910E0126E02D1570F4D6
:1077D000CE0138D0F7018083FFEFEF1AFF0A219620
:1077E000D0930E01C0930D010F5FE4CEFE01849192
:1077F000F1CF80911F0190912001212F280FFC01D2
:1078000082E191E036FF0CC03491DC013C9301969B
:1078100031962E13F9CFF0932001E0931F01CCCEC7
:10782000DC0131913C9301962E13FACFF4CF4D99A0
:10783000E6CE80910F01823008F4E1CE80910F01F5
:107840008250DBCEF999FECF92BD81BDF89A99277F
:1078500080B50895262FF999FECF1FBA92BD81BD3C
:1078600020BD0FB6F894FA9AF99A0FBE01960895C2
:04787000F894FFCFBA
:06787400FF5A1E950F00F3
:040000030000700089
:100000000C9446010C9463010C947E010C946301E2
:100010000C9463010C9463010C9416170C94630107
:100020000C9463010C9463010C9463010C946301C0
:100030000C9463010C9463010C94AE170C9463014F
:100040000C9463010C9463010C9463010C946301A0
:100050000C9463010C9463010C9463010C94630190
:100060000C9463010C94630135001E001F002000F6
:1000700021002A0027002600250024002B00140060
:100080001A00080022004C00130012000C0023008C
:1000900029000400160015001700340033000F007B
:1000A00018001C00E1001D00070009000A002800DC
:1000B00038000E000D000B00E0001B0006001900C8
:1000C00005004F0037003600100011002152E200F9
:1000D000E30021522C0052005100500021522C000C
:1000E00035001E001F00200021002A0027002600E6
:1000F0002500240035001E001F00200022004C00B7
:1001000027002600250023004C003A003B00210078
:100110002200310030002F002400230001004000A5
:100120003C003D003E0001004E002E002D003F002F
:1001300001004100420043004400AE004B00640057
:100140003200450001000100010001000100A9008A
:10015000AA00AB000100010009023B00020100A05F
:10016000320904000001030101000921010100011D
:10017000224400070581030800010904010001036E
:10018000000000092101010001227B000705830313
:1001900008000112011001000000086A700200014D
:1001A000000102000116034C0075006D006200653D
:1001B0000072006A00610063006B0000000A0350D7
:1001C00000650065006A00000004030904050109D8
:1001D00002A10185020901A10005091901290815DB
:1001E00000250195087501810205010930093115C5
:1001F00081257F95027508810609381581257F952F
:100200000175088106050C0A38021581257F9501C4
:1002100075088106C0C005010980A1018503190187
:100220002AB700150126B700950175108100C00599
:100230000C0901A101850419012AA002150126A0BB
:1002400002950175108100C005010906A10105078D
:1002500019E029E71500250195087501810295012E
:10026000750881030507190029FF150026FF009571
:100270000675088100050819012905150025019555
:100280000575019102950175039103C011241FBEEC
:10029000CFEFD8E0DEBFCDBF11E0A0E0B1E0EEEDE2
:1002A000F7E302C005900D92A039B107D9F723E01A
:1002B000A0E9B1E001C01D92AC33B207E1F70E94A2
:1002C000B6110C94B81B0C940000A82FB92F80E035
:1002D00090E041E050EA609530E009C02D9182271E
:1002E0009795879510F084279527305EC8F36F5F48
:1002F000A8F30895EADF8D939D930895CF93CFB728
:10030000CF93DF93C3954B9BE9F74B9B10C04B9B5F
:100310000EC04B9B0CC04B9B0AC04B9B08C04B9B19
:1003200006C0C0911303C395C09313038EC06F938F
:10033000C0911203DD27C65EDC4F2F9365E54B9B12
:1003400003C02F916F91E1CF0F931F934F9320E044
:1003500040E15F9309B10C7003FB27F93F9350E034
:100360003BE039C01C7040642F77012F5F5F1EC0D7
:10037000406819B11C702F7752501FC0406409B1FA
:100380002F770C70D1F15F5F00C023C0406219B1BC
:100390002F771C7091F15F5F00C025C00C70102793
:1003A000515012F45D5F0000115027952C3F19B198
:1003B000C8F61C700127015027952C3FC8F642272C
:1003C000499309B10C7010274F73115027952C3F9A
:1003D000A8F64695469519B11C7079F00127015091
:1003E00027952C3F98F66B5A60F3315009B1B0F65F
:1003F00000C012E01CBB00271CC03B503195C31B42
:10040000D04012E01CBB0881033C21F10B3411F1F8
:1004100020910F031981110F1213EDCF4A81441F50
:10042000093679F10D3211F0013E29F74F7009F0CC
:10043000042F009318033F915F914F911F910F91EB
:100440002F916F91CCB3C1FD5DCFDF91CF91CFBF25
:10045000CF91189520911803222369F31091160368
:10046000112309F049C034300AF448C03093160310
:1004700020931103109112033BE0311B30931203C0
:100480003DC0009116030130BCF50AE54F7049F4F8
:100490003091130134FD33C000931301CCEED2E050
:1004A00032C0433059F0443091F03091F70234FDBE
:1004B00026C00093F702C8EFD2E025C03091300388
:1004C00034FD1DC000933003C1E3D3E01CC0309164
:1004D000030334FD14C000930303C4E0D3E013C04E
:1004E000052710E000C000000BB91AC0052710E076
:1004F000221F1DC010E021C04AE502C032ED432F8B
:10050000C4E1D0E032E01AB11C605B9A0BB11AB9B9
:100510005CE020E865E320FF05270BB927951795D8
:100520001C3FF0F66695B8F7B1F720FF05270BB929
:10053000279517951C3FD0F62795179517FF052788
:1005400000001C3F0BB9B0F629913A9519F7037FCB
:1005500010911703110FC651D0400BB911F0109331
:100560000F0312E01CBB08601AB1137F402F437FBA
:1005700054E05A95F1F70BB91AB94BB95CCF0E9408
:10058000850D08958230B8F46630A8F44A3098F4A6
:10059000E42FF0E09AE0699FE00DF11D11249CE347
:1005A000899FE00DF11D1124EE0FFF1FE859FF4F49
:1005B00085919491089581E090E008950E94C2028F
:1005C000089581E008950E94E102089581E0089570
:1005D0000E94E10208950E94E802089508950E9491
:1005E000EE020895A6E0B0E0E8EFF2E00C94141BF0
:1005F00049835A839E833091970189819A81311171
:100600001AC03E81332399F0222389F00E948C087E
:10061000182F682F89819A810E94680869817A81E0
:10062000812F0E94420F2696E3E00C94301B0E941B
:100630007A08182FF3CF0E948C0869817A81F1CF54
:10064000FC01262F408151816281738184819581D3
:100650000E94F2020895CF93DF93D82FC92F61E053
:100660000E9420036D2F7C2F0E94E302DF91CF9127
:100670000895CF93DF93D82FC92F60E00E94200305
:100680006D2F7C2F0E94EF02DF91CF910895089586
:100690000E9439070E9447032FEF84E39CE021501A
:1006A00080409040E1F700C0000008950E94480398
:1006B0000E94D21708950E9448030E94E7170895E8
:1006C0000F931F93CF93DF938C0161E00E9420036F
:1006D000EC01B8010E94EB02811106C080E0DF91BD
:1006E000CF911F910F910895B801CE010E94B415CA
:1006F0008823A1F3B801CE010E944A14882371F324
:10070000B801CE010E942615882341F3F8018581A6
:10071000882381F0CA35FCE7DF0711F178F4C13096
:10072000ECE7DE07D1F0C330FCE7DF07A1F0C1152D
:10073000DC4771F0C8010E94E602D1CFCB35ECE76F
:10074000DE0789F0CC35DC47A9F70E948E0CF2CF8A
:100750000E945603C3CF0E94A00C0E945B03BECF31
:100760000E94980CE7CF0E949C0CE4CF0E94F816E0
:100770000E94DD0308950E94E1030E94FD16089582
:10078000089581E008950895CF93DF93D82F0E94B4
:10079000C103C82F882319F08D2F0E94C3038C2F0B
:1007A000DF91CF9108950895CF93C82F0E94C00381
:1007B0008C2F0E94C403CF91089580E00E94D4033F
:1007C00008950E94FC150E94D4030895CF930E94BF
:1007D000FC15C82F809192018C1779F0C09392017B
:1007E0000E94821760939301709394018093950106
:1007F000909396018C2F0E94D403CF910895ADE081
:10080000B0E0E5E0F4E00C94151B488759876A874F
:100810007B878C879D8791110E94DC0B1F8286E06D
:10082000FE013896DE01119601900D928A95E1F74E
:100830008D8181110DC029813A814B815C816D814F
:100840007E818F810E940C0B2D96E2E00C94311B6F
:10085000CE0101960E942B038111EDCFF5CFFC0153
:100860008481813021F4808191810E94BE080895A5
:10087000662329F00E944D120E94201308950E94C1
:10088000A712FACFCF93C82F8823B9F08CEF8C0F23
:10089000813AA8F46C2F80910001909101010E948F
:1008A0008116882329F08C2F0E949A0B0E94150C28
:1008B0008C2F0E94920B0E94150CCF91089580E21C
:1008C0008C0F883048F4C77081E001C0880FCA954A
:1008D000EAF70E94BD0BEFCF8BE58C0F833038F425
:1008E0002C2F2452330BC9010E942316E6CFE8E5D2
:1008F000EC0FEB3150F4F0E0EE0FFF1FEC5EFE4F1B
:10090000808191810E944916D8CF83E38C0F833177
:10091000A0F661E08C2F0E943804CFCF882381F1AC
:100920009CEF980F913A28F40E949A0B0E94150CA4
:10093000089590E2980F983050F4877091E001C0CC
:10094000990F8A95EAF7892F0E94C30BEFCF9BE599
:10095000980F933028F490E080E00E9423160895C9
:1009600098E5980F9B3128F490E080E00E944916AA
:10097000089593E3980F933118F460E00E943804CF
:1009800008951F93CF93DF93182FEB010E94420429
:10099000209739F4812F0E948E04DF91CF911F910F
:1009A00008958FE99FE00197F1F700C000002197BB
:1009B000EFCF70E060E0893311F460E570E00E94F1
:1009C000C1040895882321F00E94BD0B0E94150CDC
:1009D0000895882321F00E94C30B0E94150C0895EE
:1009E000B0E0A0E0E6EFF4E00C940D1B6C01D62F14
:1009F000C72FFC011581068102950F700E94B30B71
:100A0000E82E8823E9F0E12E1123D1F08C2F807F8E
:100A1000803451F080E28D0F8830F0F0011104C075
:100A20008C2F807E8032C1F08091CF0282FF14C073
:100A300082E00E94620C0E94B30B91E0E82EE9264E
:100A40008C2F82958F70A82EB12C8C30B0F5F501CB
:100A5000E654F44E0C94FF1AE12CF2CF0C2F0F70D9
:100A6000C07F11F00295007F112399F0002359F007
:100A700080E28D0F883010F0D11107C0802F0E94C6
:100A8000BD0B0E94150C8D2F5CC0802F0E94CE0BD9
:100A9000F8CF8D2F0E948E04002379F080E28D0F15
:100AA000883010F0D11104C0802F0E94C30B03C006
:100AB000802F0E94D40B0E94150C88E0A81AB10860
:100AC00094E0A916B10420F40E94FC150E94D403FE
:100AD000EE2089F00E94AF0B80FD0DC0F60115825B
:100AE0000E94A90B0E94C507C6010E9400070E9430
:100AF000A90B0E94D507CDB7DEB7EAE00C94291BFD
:100B0000FC2FFF70FF2EC07FC03219F0F29480EFEF
:100B1000F822DD2341F0D130D1F1112309F444C092
:100B20000023F1F0B0CF8091CF0282FD15C01123D8
:100B300059F0FF2029F08F2D0E94BD0B0E94150C4B
:100B400080E00E944204B9CF80E00E948E04FF2022
:100B500009F4B3CF8F2DA9CF112369F0011104C07F
:100B60008F2D0E94E204A9CF013009F0A6CF8F2D6E
:100B70000E94F30BA2CF0111A0CF8F2D0E94E90498
:100B80008F2D0E94FF0B8F2D0E94E30B96CF112318
:100B900021F0063008F091CFE3CF053008F08DCF7B
:100BA0008F2D0E94E90489CF0023D1F3D93349F472
:100BB0002FEF87EE93E0215080409040E1F700C096
:100BC00000008D2F0E948E0478CF8C2F86958695FD
:100BD000837069F0813009F070CF8D2F9C2F937056
:100BE000111102C080E090E00E94491666CF8D2F5F
:100BF0009C2F9370111102C080E090E00E94231698
:100C00005CCF612F8D2F0E94380457CF8C2F8370BB
:100C1000A9F5111152CF4D2F429546954770440FBB
:100C2000440F2D2F2F7030E0042E02C0220F331FEF
:100C30000A94E2F790E080E0D4FF09C08FE090E0F2
:100C400002C0880F991F4A95E2F780959095C69546
:100C5000C695C370822B932BC23051F0C33059F02C
:100C6000C13019F00E94950728CF0E948C0725CF2C
:100C70000E949E0722CF0E9489071FCF86951123CD
:100C800011F08C2F8170882309F417CF4D2F4295D6
:100C900046954770440F440F2D2F2F7030E0042EDF
:100CA00002C0220F331F0A94E2F790E080E0D4FFE5
:100CB00009C08FE090E002C0880F991F4A95E2F7C3
:100CC00080959095C695C695C370822B932BC230A4
:100CD00051F0C33059F0C13019F00E940008EDCE38
:100CE0000E94F707EACE0E940908E7CE0E94AD07EE
:100CF000E4CECF70112329F08C2F0E94C5078D2FD1
:100D000030CF8D2F0E94E9048C2F0E94D507D5CEBD
:100D1000D23F41F160F4D03FB9F0D13F81F01123CF
:100D200009F446C00111AFCE8C2F8F711FC0D33F85
:100D300001F1D43FA1F78091CF0282FD24C08C2F16
:100D40008F71112311F312C0112341F0053008F007
:100D5000B4CE8C2F8F710E94E707AFCE063008F01B
:100D6000ACCEF7CF8C2F8F711111CFCF0E94C5075A
:100D7000A4CE112329F08C2F8F710E94B9079DCE2C
:100D80000E94B4079ACE112349F0CF718C2F0E9494
:100D9000C50763E08C2F0E94440C8FCE81E00E9437
:100DA000620C023008F489CE82E00E94620C85CE8B
:100DB000002359F0D93309F004CFEFEFF7EE23E029
:100DC000E150F0402040E1F7FACE8C2F8F719DCF9B
:100DD0000F931F93CF93DF93EC01688179818D810D
:100DE0000E94CB088C010E9412080E948807B8015B
:100DF000CE010E94F004DF91CF911F910F910895D1
:100E0000CF93DF93EC018C81882399F0CE010E946F
:100E10006003811111C00E94B30B882351F08D81B2
:100E2000882339F08091CF0282FF03C082E00E94C4
:100E3000620CDF91CF910895CE010E94E806CE01A9
:100E40000E943903F6CF90E080E00E94231690E0E4
:100E500080E00E9449160E94DC0B0E94150C0E9443
:100E60003B130E94201308950E94A20B0E942307A7
:100E700008950E94CB0B0E9434070895282F929565
:100E80009F70963091F060F4925F9F70923030F4D2
:100E900081E0203F81F030F4283E30F080E008957A
:100EA0009A5FF3CF243FD1F7089581E0283EE0F325
:100EB000213FA1F7F9CF0895FC018481882339F0FF
:100EC000808191810E94BE080E943E07089580E0C3
:100ED0000895A6E0B0E0EFE6F7E00C94151B269627
:100EE000E2E00C94311BA7E0B0E0E9E7F7E00C94F6
:100EF000151B2796E2E00C94311B08950E947D0794
:100F000008950E947E079093BB018093BA010895D3
:100F100008950E94810708952091BA013091BB0184
:100F2000822B932B0E94810708952091BA01309162
:100F3000BB01822393230E94810708952091BA0167
:100F40003091BB01822793270E94810708950E9458
:100F50007D0708950E94A70708950E94AA0790930D
:100F6000B9018093B801089590E080E00E94AD0738
:100F7000089521E030E0A90102C0440F551F8A9571
:100F8000E2F7CA010E94AD07089521E030E002C0F7
:100F9000220F331F8A95E2F78091B8019091B90131
:100FA000822B932B0E94AD07089521E030E002C010
:100FB000220F331F8A95E2F7209530958091B80172
:100FC0009091B901822393230E94AD07089521E0F7
:100FD00030E002C0220F331F8A95E2F78091B801FA
:100FE0009091B901822793270E94AD07089520911F
:100FF000B8013091B901822B932B0E94AD0708955F
:101000002091B8013091B901822393230E94AD074A
:1010100008952091B8013091B901822793270E9449
:10102000AD07089508959B01677091E001C0990F85
:101030006A95EAF763E0369527956A95E1F7220FFE
:10104000331F220F331FFA01E20FF31F50E040E07D
:10105000682F70E08191DF0111979B01042E02C07F
:10106000369527950A94E2F72170219528272923A0
:1010700028272C934F5F5F4F4430510559F708954F
:101080009C01982F977083E0369527958A95E1F714
:10109000220F331F220F331FFB01E20FF31F50E01B
:1010A00040E080E0219130E0092E02C0369527957E
:1010B0000A94E2F721703327042E01C0220F0A940C
:1010C000EAF7822B4F5F5F4F4430510559F708957F
:1010D000282F862F963068F42A3058F4622F70E05B
:1010E0002AE0929F600D711D112448E951E00E9491
:1010F00013080895292F963068F48A3058F490E048
:1011000068E971E03AE0239F800D911D11240E944F
:101110004008089580E00895B0E0A0E0E2E9F8E03A
:101120000C940E1B8C01E090B801F090B9018091F5
:10113000BA019091BB01E82AF92ACFE0D0E0CC2493
:10114000C394D12CBC2EC6010C2E02C0880F991F4F
:101150000A94E2F78E219F21892B49F4219790F779
:10116000B12C8B2DCDB7DEB7E9E00C942A1BB8016A
:101170008C2F0E944E0F019789F3F3CFCF93DF930B
:10118000D82FC92F0E948C086D2F7C2F0E944E0FE4
:10119000DF91CF9108951F93CF93DF93162FD72F11
:1011A00090919701992341F0862F972F0E94BE08B6
:1011B000DF91CF911F910895882381F0862F972F7B
:1011C0000E948C08C82F682F812F9D2F0E946808CD
:1011D000612F7D2F8C2F0E944E0FEACF862F972FE5
:1011E0000E947A08C82FF4CF1F93CF93DF93E0912A
:1011F000BC0117E08091BD018E1304C0DF91CF9137
:101200001F910895CE2FD0E01E9FF0011124E254CB
:10121000FE4F2081318142815381648175818681B5
:101220000E947307FE013196E770E4CF2091F6012A
:101230003091F7014091F8015091F9016091FA0164
:101240007091FB018091FC010E9473070895CF9378
:10125000DF938091FC01807F09F04DC08091FB01FC
:10126000882309F448C0E091BC015091BD01C091B0
:10127000F701D091F6016091F8017091F90147E012
:101280005E17C9F18E2F90E0E49FF0011124E25423
:10129000FE4F2481222391F1489FF001499FF00DD8
:1012A0001124DF01A254BE4F11962C9111972C13DB
:1012B00025C02C912D1322C015962C911597211124
:1012C0001DC012962D913C91261B370B283C3105F1
:1012D000A8F48091FC018F7080618093FC01EC5335
:1012E000FE4F80818F708061808386EF91E00E9445
:1012F00000070E94F408DF91CF910895FC01319618
:10130000E770BECF982FE091BC014091BD0157E03E
:10131000E41302C080E008952E2F30E05E9FF001BC
:101320001124E254FE4F8181681306C08081981316
:1013300003C085818111EFCFF9013196E770E8CFC5
:10134000ADE0B0E0E6EAF9E00C940B1B8C0186E01E
:10135000F801DE01189601900D928A95E1F7F801E7
:101360008481E58096EFA92E91E0B92E9091FA0143
:1013700091111FC08823D1F0EE20A9F0C8010E946E
:101380005C07F82E882379F087E0F801D5010190F9
:101390000D928A95E1F7C5010E942F040E9427094A
:1013A0000E9416095FC0C8010E940007FF24F39441
:1013B00059C0C080D18082809380F090FB01209141
:1013C000F8013091F901A401421B530BFF2009F4ED
:1013D000DBC0483C510508F0A7C0882309F442C08F
:1013E0009091F7018091FC01282F207F09F05CC0CB
:1013F000D91216C09091F601C91212C0E1104EC068
:101400008F7080618093FC010E94160986EF91E045
:101410000E9400078091FC01F8018683F12C22C014
:10142000E1103CC06D2D8C2D0E9482096D2D8C2DFC
:101430000E948209E82E8111F1CFC886D98688855D
:1014400099850E94BE08292F22952F70903478F438
:101450009F702230A8F09923B9F0F8019681907F0F
:1014600099F4FE2C8F2D2D96ECE00C94271B2A5F0F
:101470002F70223068F0C8010E940007EF2CF1CFD6
:10148000992311F0882369F3805E883050F3F3CFFD
:10149000803F38F3815F833020F3EDCF8091FC01F2
:1014A00081608093FC01BACFD91213C09091F601EC
:1014B000C9120FC0E1100DC08683C8010E94000749
:1014C00087E0F801A6EFB1E001900D928A95E1F76F
:1014D00067CFC8010E945C07882309F464CFEE201F
:1014E00009F461CF8091FC01803288F02091F601EF
:1014F0003091F7013A8329839C828B829091FA0183
:101500009D831E828F83CE0101960E94000787E093
:10151000F801A6EFB1E001900D928A95E1F70E94E3
:1015200027090E94160942CF9091FC01292F207FA4
:10153000A1F4682D9B868A86A6017B859E2D0E943C
:10154000690786EF91E00E94000787E0F50111929C
:101550008A95E9F70E94160961CF882309F482CFA2
:101560008091F7018D11B5CF8091F601C812B1CFEE
:10157000E110AFCF9683C8010E94000787E0F50114
:1015800011928A95E9F76ECF483C5105B8F588234A
:1015900009F40CCFFE2CEE2009F405CF8091F70161
:1015A0008D111EC08091F601C8121AC08091FC01F5
:1015B00080FD0DC0982F907F51F08683903F09F4F5
:1015C0007CCF982F907F905F8F70892B75CF87E0AD
:1015D000F801A6EFB1E001900D928A95E1F742CFB4
:1015E000C8010E945C07811192CF8091FC0181604B
:1015F0008093FC01C8010E94000734CF682D9B86B0
:101600008A86A6017B859E2D0E94690787E0F501E9
:1016100011928A95E9F7C4CEAEE0B0E0E2E1FBE0DA
:101620000C94141B288739874A875B876C877D87D2
:101630008E87CE0108960E94A0098823B1F06C85A0
:10164000662341F0288539854A855B857D858E85B1
:101650000E94730717E08091BC019091BD0189132E
:101660003EC02E96E3E00C94301B87E0FE013896D6
:10167000DE01119601900D928A95E1F74C85442385
:1016800049F32091BD0130E0C90101968770992787
:101690005091BC0158171906A1F04D8397E0929F15
:1016A000D001939FB00D1124A254BE4FFE0131967C
:1016B00001900D929A95E1F78093BD010E94F40884
:1016C000C9CF0E9439071092BD011092BC0187E07A
:1016D000E6EFF1E0DF011D928A95E9F7BBCF819F2C
:1016E000C001112482549E4F0E94A009882309F44E
:1016F000B8CFE091BC011E9FF0011124E254FE4FCF
:1017000020813181428153816481758186810E946B
:1017100073078091BC0190E00196877099278093B0
:10172000BC0199CF682F80910001909101010E9426
:10173000BB160895682F80910001909101010E94CD
:10174000BE16089580910001909101010E94C1167A
:1017500008958091FD0186958695869508958091DE
:10176000FD01877008959091FD01977081E009F463
:1017700080E0089580910902089590910902982BC4
:10178000909309020895982F9095809109028923DA
:101790008093090208951092090208959091080219
:1017A000982B909308020895982F909580910802A5
:1017B00089238093080208951092080208950895DD
:1017C0000E94DF0B08959091FE01292F282331F00C
:1017D000809589238093FE010E94E00B089508956F
:1017E0000E94EF0B08959091FF01292F28232817BD
:1017F00029F0982B9093FF010E94F00B089590918F
:10180000FF01292F282331F0809589238093FF0140
:101810000E94F00B08958091FF01882329F0109217
:10182000FF0180E00E94F00B0895E0910001F0912B
:101830000101809109028083E0910001F091010192
:10184000808190910802892B80839091FF019923D8
:1018500081F0E0910001F09101018081892B80836A
:1018600080910001909101010E946F1681110E94E8
:101870000B0C80910001909101010E9409160895BE
:1018800008950E94400C08959091CF0292FF11C0DC
:1018900098E0899F90011124622B6093FD010E94C2
:1018A000C5078091FD018695869586950E94410C1D
:1018B00008950E94C50708951092FD0180E00E94DE
:1018C000410C08959091FD01809589238093FD013D
:1018D000282F277069F4891759F09091CF0292FF51
:1018E00007C08695869586950E94D5070E945C0C58
:1018F00008959091CF0292FB222720F9281769F0D2
:1019000080FB92F99093CF028091CE029091CF020A
:101910000E94C10C82E00E94620C08958091CF0267
:1019200082FB882780F991E089270E94790C08952D
:1019300081E00E94790C089580E00E94790C08955E
:101940006FEF7FEF90E080E00E94A21B089590E08F
:1019500080E00E946E1B9C0181E0263E3E4F09F014
:1019600080E0089582E090E00E94661B089583E085
:1019700090E00E94661B089584E090E00E946E1B38
:101980000895BC0184E090E00E94A21B0895AB0181
:10199000BC018FE090E00E94961B0895AB01BC0152
:1019A00083E190E00E94961B089560E070E0CB0117
:1019B0000E94CE0C089560E070E0CB010E94C70C3D
:1019C0000E94D50C0895A8E0B0E0E9EEFCE00C948C
:1019D000151B66EE7EEF90E080E00E94A21B60E0A7
:1019E00082E090E00E94841B60E083E090E00E942F
:1019F000841B1092BB011092BA0160E074E184E094
:101A000090E00E94A21B60E086E090E00E94841BB0
:101A10006FEF87E090E00E94841B40E050E0BA0145
:101A200088E090E00E94961B60E084E290E00E94D3
:101A3000841B60E087E190E00E94841B60E08CE002
:101A400090E00E94841B60E08DE090E00E94841B87
:101A500019821A821B821C821D821E821F82188696
:101A600048E050E068E170E0CE0101960E94741BEE
:101A700040E050E0BA0180E290E00E94961B0E9494
:101A8000DB0C2896E2E00C94311B0E94E30C0895D5
:101A9000682F8EE090E00E94841B0895A6E0B0E0DD
:101AA000E4E5FDE00C94131B0E9476178C018091F5
:101AB0000A0290910B028017910781F019821A8215
:101AC0000E947617682F49815A81792F80E090E033
:101AD0000E94FF0310930B0200930A022696E4E093
:101AE0000C942F1B0E94821760931C0270931D029E
:101AF00080931E0290931F02609318027093190244
:101B000080931A0290931B020895089508950895F2
:101B10000E94870D089584E490E10E94C3110E9401
:101B2000860D0E94BF02089581E008950E94940DE1
:101B300008950E94940D0895089508950E949C0DA3
:101B40000E949D0D08950E9447100E94D30308959E
:101B50000E946D170E941B110E94A30D0E94880D08
:101B60000895A6E0B0E0E7EBFDE00C94091B0E94AD
:101B7000960D81110AC00E944E0D0E945C130E94B6
:101B8000E6032696EEE00C94251B0E9431112CE012
:101B9000822E22E0922E640110E0F601E190F19095
:101BA0006F01812F0E946D101F5F163009F44DC028
:101BB000E816F90691F38091200281FD0E947610CB
:101BC0000E94990D782EF12C662463948F2D0E942B
:101BD0006D108C01F401A190B1904F018A159B0505
:101BE00069F1A826B126E12CCC24C394D12CC501DF
:101BF0008C219D21892BC1F07720B1F0E982FA82F6
:101C00000E9476179C838B836D8221E0C8018C2112
:101C10009D21892B09F420E049815A816B817C81C7
:101C20008D81922F0E94FF03E394CC0CDD1CFAE01F
:101C3000EF12DDCFF401329711830083F39486E035
:101C4000F812C4CF0E94720D98CFE816F90609F079
:101C5000B2CF91CF1F93CF93DF930E94530FEC012C
:101C60008115924508F05FC0C11580E5D80708F0DE
:101C7000DDC0C03ED10538F5CD3CD10508F0AEC081
:101C8000C83AD10580F4C53AD10508F0A4C0C130E6
:101C9000D10509F443C0CE010497813A9105F0F1D2
:101CA000D0E0C0E03BC0CE01885A91094B97C0F705
:101CB000C85AD0E0CC0FDD1FC65BDE4F0990D8813B
:101CC000C02DD4642BC0C11590E4D907F0F4C11520
:101CD00020E2D20708F0C4C0C83ED105F8F0CE011A
:101CE0009A9581159F41E0F68D2F0E94F50F182FD0
:101CF000CE0199270E94530FC12FD0E0DC2FCC27B3
:101D0000CC27DF71C82BD92B09C0CE0199270E949F
:101D1000530FCC27DF70C82BD92BD06ACE01DF91AF
:101D2000CF911F910895C03882E5D807B8F5C03625
:101D300092E5D90708F05BC0C03422E5D207C8F4A9
:101D4000C03282E5D80708F04BC02C2F2695269587
:101D500090E2299F900111248C2F8370C1E0D0E084
:101D600002C0CC0FDD1F8A95E2F7C22BD32BDD68B2
:101D7000D5CF2C2F26952695277080E2289F90019D
:101D800011248C2F8370C1E0D0E002C0CC0FDD1F86
:101D90008A95E2F7C22BD32BDC68C0CFC03C92E51A
:101DA000D90760F48C2F8F71C03AD245A8F5C82F9F
:101DB000D0E0DC2FCC27C46FD06AB0CFCE01805CDE
:101DC0009245809708F06CCFDC2FCC27CC27DF71B1
:101DD000C06FD06AA3CFA497D064A0CFD0659ECFA8
:101DE000CF71D0E0DC2FCC27C16FD06A97CF2C2FDA
:101DF00026952695277080E2289F900111248C2F2C
:101E00008370C1E0D0E002C0CC0FDD1F8A95E2F7FD
:101E1000C22BD32BDA6882CF0E94F50FC82FD0E0F7
:101E2000DC2FCC27CC27DF71D06278CF8C2F8F713D
:101E30000E94F50F55E0D695C7955A95E1F7CF70FA
:101E4000D0E0DC2FCC27282F30E084FF05C044E011
:101E5000220F331F4A95E1F7C22BD32BD0695ECFF7
:101E60008D2F8F710E94F50F182FCE0199270E9498
:101E7000530FC12FD0E0DC2FCC27CC27DF71C82B2C
:101E8000D92BD2CF462F672F763028F44A3018F45A
:101E90000E94DE02089580E090E008950E94420FC3
:101EA0000E942A0E0895803E9105C1F1C8F4813345
:101EB000910509F47DC048F48932910509F46DC09B
:101EC0008A32910509F47BC0089589339105D1F0D8
:101ED00082389105B9F08533910509F459C0089508
:101EE000843E9105C1F138F4823E910521F1833E93
:101EF000910531F10895863E9105C1F1873E910526
:101F0000E1F108952091CE02237009F065C020917F
:101F1000CF0223FF14C089E290E008952091CE0201
:101F200020FD43C03091CF0230FF09C024FF4EC0D6
:101F300090E080E008952091CE0222FDF7CF089531
:101F40002091CE0222FD45C03091CF0230FD44C029
:101F500024FFF5CFEDCF2091CF0221FFF0CF80916C
:101F6000CE0284FDE5CF87EE90E008952091CE0269
:101F700023FFE5CF24FDDCCFF6CF2091CE0223FD59
:101F80002EC03091CF0231FFE3CF84EE90E0089570
:101F90002091CE0225FFD3CFBECF2091CE0225FDCA
:101FA00021C02091CF0223FFCACF89E390E0C7CFA1
:101FB0002091CE0226FFC3CF8AE290E008952091BF
:101FC000CE0226FFBCCF81E390E0089583EE90E03F
:101FD000089582EE90E0089580EE90E0089586EEF8
:101FE00090E0089585E390E008959091CE0292FFED
:101FF00010C041E0282F2471243009F040E031E086
:10200000282F2871283009F030E0431711F02CE018
:10201000822793FF10C041E0282F2471243109F05A
:1020200040E031E0282F2871283109F030E04317D3
:1020300011F02CE082273091CF0230FF10C051E028
:10204000282F2171213009F050E041E0282F28711C
:10205000283009F040E0541711F029E0822731FFC1
:1020600010C041E0282F2171213109F040E031E01A
:10207000282F2871283109F030E0431711F029E0AA
:10208000822794FD877E089580E0089508950E9438
:10209000A70C811102C00E94450D0E94B20C8093D2
:1020A00020020E94BC0C9093CF028093CE020E942B
:1020B00046100E94B70C90E00E9489078091B801F9
:1020C0009091B9010E94AA07089508950E94651091
:1020D000089508950E9469100895E82FF0E0EE0F2A
:1020E000FF1FE452FD4F808191810895089580EA99
:1020F0008A95F1F7089500C008950E947710089519
:10210000F894E82FE295EF70F0E041A18F7021E0A4
:1021100030E0B90102C0660F771F8A95E2F7CB0164
:10212000962F9095942391A392A1892B82A37894C2
:102130000895CF93DF93CAE8D1E089918F3F11F0E2
:102140000E94801081E0C039D807B9F7C0E8D1E01B
:1021500089918F3F11F00E94801081E0CA38D80722
:10216000B9F7DF91CF910895B0E0A0E0EAEBF0E19C
:102170000C940E1BEC01B62E062F10E0C8018657FA
:102180009E4F7C01FC0120812F3F09F44CC0F89444
:10219000E22FE295EF70F0E031A12F7081E090E046
:1021A00001C0880F2A95EAF7932F982B91A392A14B
:1021B0008095892382A378940E947B10E0E8F1E067
:1021C00041E050E0D12CC12C21912F3F89F1A22F69
:1021D000A295AF70B0E090968C9190E02F7002C005
:1021E000959587952A95E2F780FD22C0CA01C82AF5
:1021F000D92A440F551F81E0EA38F80729F7F7017B
:1022000080818F3F11F00E94801061E0C114D104E1
:1022100009F460E08B2D0E947D10000F111FC00F8C
:10222000D11FD982C882CDB7DEB7E9E00C942A1B52
:1022300090E080E0DCCF0E9499108CE0ECEDF2E0C1
:10224000DF01982F1D929A95E9F7E0EDF2E0DF01AA
:102250001D928A95E9F786E00E946D110E94661032
:102260000895ACE0B0E0E7E3F1E10C94121B8E01BD
:102270000F5F1F4F8CE0F80111928A95E9F7F12C5E
:102280006F2DC8010E94B410F394F6E0FF12F8CF4E
:102290004CE050E0B80180ED92E00E94501BAC0190
:1022A00021E0892B09F420E0452B41F08CE0F80176
:1022B000A0EDB2E001900D928A95E1F746E06CED59
:1022C00072E080ED92E00E946E11182F0E946A1059
:1022D000812F2C96E5E00C942E1B0895B0E0A0E031
:1022E000E4E7F1E10C94101BD82EE92EF62E072F0F
:1022F000C42F222349F081E0809323020E947617A5
:10230000909322028093210210912302111107C0A1
:1023100010E0812FCDB7DEB7E7E00C942C1B809145
:102320002102909122020E949F17059788F3D0E026
:10233000CC0FDD1FAE016D2D7E2D8F2D902F0E94B5
:10234000501B892B51F0AE016D2D7E2D8F2D902FBE
:102350000E945D1B10922302DCCF10E0FBCF0E9495
:1023600002180E94A80D0E94131808950E941517C4
:102370000E94F2170E948B0D0E94AF110E9421183B
:102380000E949E0DFBCF9093910180939001089540
:10239000282F35EB2303C001112497FF04C0805878
:1023A0009109892F089580589F4FFBCF80912A0271
:1023B00080FF0DC06091070170E0660F771F6038E5
:1023C000710570F56115710569F1862F089581FF1A
:1023D00007C06091070184E0689FB0011124EFCF2E
:1023E0006091070182FD0AC0809129028823A9F02B
:1023F0002091060160910701821710F088E0ECCF70
:10240000869FC001112433E0880F991F3A95E1F7A8
:10241000622F70E00E94EB1AD2CF68E070E0D5CF57
:102420008FE7089581E0089580912A0280FF0CC013
:102430006091030170E075956795759567956115D5
:10244000710549F1862F089581FF06C0609103014F
:1024500070E075956795F3CF6091030182FD0BC025
:10246000909128029923A1F06091020180910301CB
:10247000961738F0682F70E06038710500F38FE729
:102480000895899FC001112470E00E94EB1AF4CFD7
:1024900061E070E0D7CF81E008958D3C31F40E9477
:1024A000D611819580932E0208958E3C19F40E94D6
:1024B000D611F8CF8F3C31F40E94D61181958093CC
:1024C0002D020895803D19F40E94D611F8CF893D60
:1024D00029F40E94141280932F0208958A3D21F45A
:1024E0000E9414128195F7CF8B3D31F40E94141293
:1024F00081958093300208958C3D19F40E94141246
:10250000F8CF9FE2980F983070F4815D990B21E02D
:1025100030E001C0220F8A95EAF780912C02822BCD
:1025200080932C0208958D3D31F480912A028160C0
:1025300080932A0208958E3D21F480912A028260C0
:10254000F7CF8F3DB9F780912A028460F1CF409197
:102550002D028D3C59F480912E0287FF0DC0109200
:102560002E0241110BC01092290208C08E3C81F44A
:1025700080912E0218169CF3442381F080912F0243
:1025800090913002892B09F05AC0109228020895C8
:102590008F3C49F447FFF0CF10922D0280912E021C
:1025A0008111ECCFE0CF803D19F41416ACF3E4CFE9
:1025B00090912F02893D29F41916F4F610922F02FA
:1025C000DBCF8A3D19F497FFD7CFF8CF9091300237
:1025D0008B3D29F497FFD0CF10923002CDCF8C3DA8
:1025E00019F41916CCF3C8CF9FE2980F983090F4E5
:1025F000815D990B21E030E0B90102C0660F771FC1
:102600008A95E2F7CB01809590912C0289238093E3
:102610002C02B2CF8D3D31F480912A028E7F8093BF
:102620002A02AACF8E3D21F480912A028D7FF7CF16
:102630008F3D09F0A1CF80912A028B7FF0CF0895C2
:102640000E94761720912D0230912E02232B21F02B
:10265000809326029093270220912F02309130021E
:10266000232B21F080932402909325028BE292E0A9
:102670000E941416089586E0EBE2F2E0DF011D925D
:102680008A95E9F7109229021092280210922A02E4
:102690000895FC01828181110DC0838181110AC0DE
:1026A0008481811107C081E09581911101C080E092
:1026B0008170089581E0FCCFA6E0B0E0E2E6F3E1AE
:1026C0000C94141B86E0EBE2F2E0DE01119601901F
:1026D0000D928A95E1F710922D0210922E0210921F
:1026E0002F02109230028B819C81892B89F080917E
:1026F0002602909127020E949F179C018091290237
:102700008823C9F1909108019217130608F440C07C
:102710008D819E81892B91F08091240290912502D8
:102720000E949F179C0180912802882309F46AC0A7
:10273000909104019217130608F472C0BE016F5FF6
:102740007F4F8BE292E00E94C916811105C08BE297
:1027500092E00E94491381110E94201386E0FE013D
:102760003196ABE2B2E001900D928A95E1F72696A0
:10277000E3E00C94301B409109019AE0499FA001CD
:1027800011244217530720F68F5F8093290202C05D
:102790008F3FD1F71B81112359F00E94D6119FEF73
:1027A00011160CF491E0899F802D112480932D0245
:1027B0001C81112359F00E94D6119FEF11160CF4C1
:1027C00091E0899F802D112480932E0280912D020B
:1027D000882309F49DCF10912E02112309F498CF7C
:1027E0000E94C811882351F080932D02812F0E94EE
:1027F000C811882329F080932E028ACF81E0F4CF7C
:1028000081E0F9CF409105019AE0499FA001112490
:102810004217530708F092CF8F5F8093280202C0BF
:102820008F3FD1F71D81112359F00E9414129FEFA1
:1028300011160CF491E0899F802D112480932F02B2
:102840001E81112359F00E9414129FEF11160CF4EF
:1028500091E0899F802D11248093300280912F0276
:10286000882309F46BCF10913002112309F466CF4D
:102870000E94C811882351F080932F02812F0E945B
:10288000C811882329F08093300258CF81E0F4CF1B
:1028900081E0F9CFCF93DF93EC01FB0185818823A1
:1028A00009F4D2C09E0130572332310508F0B2C07E
:1028B0000E94BC0C9093CF028093CE02FE01E150A7
:1028C000F047E232F10520F4EA53F44E0C94FF1A7B
:1028D0008091CE0281608093CE0293C08091CF021E
:1028E00088608093CF028DC08091CE028260F3CF4A
:1028F0008091CE028460EFCF8091CE028860EBCFD2
:102900008091CF028160EDCF8091CF028260E9CFCC
:102910008091CE028061DFCF8091CE028062DBCFDA
:102920008091CE028064D7CF0E9439078091CE0279
:102930008068D1CF8091CE028C60CDCF8091CF02C4
:102940008360CFCF8091CE028E7FC5CF8091CF02A2
:10295000877FC7CF8091CE028D7FBDCF8091CE0281
:102960008B7FB9CF8091CE02877FB5CF8091CF0288
:102970008E7FB7CF8091CF028D7FB3CF8091CE0273
:102980008F7EA9CF8091CE028F7DA5CF8091CE0280
:102990008F7BA1CF0E9439078091CE028F779BCF8A
:1029A0008091CE02837F97CF8091CF028C7F99CF89
:1029B0008091CE0282FB992790F921E0922790FB2B
:1029C00082F990FB83F987CF8091CF02982F909561
:1029D00091708E7F892B90FB81F983CF9091CE02ED
:1029E000892F8F7B96FF806476CF0E943907909164
:1029F000CE02892F97FB87F980586DCF81E00E9426
:102A0000480D8091CE029091CF020E94C10C0E948D
:102A1000390780E0DF91CF91089580E0F0CF909169
:102A2000CE02892F8F7E94FF806155CF9091CE0288
:102A3000892F8E7F90FF81604ECF9091CF02892F9A
:102A4000877F93FF88604DCF81E0E4CFCF93DF9302
:102A5000EB0186319C4711F50E94BA0B9D819923A9
:102A600099F08A7A91E009F490E090933102811113
:102A700009C089E20E94920B0E94150C80E0DF9150
:102A8000CF91089585E3F6CF80913102811104C082
:102A900089E20E949A0BF0CF85E3FBCF81E0EFCF74
:102AA0000F931F93CF93DF93C42FD22FFC01858107
:102AB0008823C9F0409334020E9476179093330222
:102AC0008093320280E28C0F883040F4C77081E03E
:102AD00001C0880FCA95EAF70E94E204DF91CF9106
:102AE0001F910F91089510913402141332C08091F8
:102AF0003202909133020E949F17883C910548F55D
:102B0000C0E2CD0F1D17B9F080E2810F883040F48C
:102B1000177081E001C0880F1A95EAF70E94E90456
:102B2000C83048F481E09D2F977001C0880F9A95B6
:102B3000EAF70E94E204802F0E94D904C83070F6A0
:102B4000D77081E001C0880FDA95EAF70E94E904A6
:102B5000C5CF80E28C0F883008F6C77081E001C0D5
:102B6000880FCA95EAF7F2CF0F93FC01CB01E85129
:102B7000FC47E730F10590F5E851F44E0C94FF1A4C
:102B800006E221EE41EE6AE17CE70E94501580E00A
:102B90000F91089507E225EE45EE6BE17CE7F5CF56
:102BA00006E221EE40EE68E17CE7EFCF07E225EE9A
:102BB00044EE69E17CE7E9CF06E221EE42EE6CE10A
:102BC0007CE7E3CF07E225EE46EE6DE17CE7DDCF63
:102BD00008E221E045EE6EE17CE7D7CFFB0185817D
:102BE000882319F010923402D3CF81E0D1CF909393
:102BF0003A02809339020895E0913902F0913A0245
:102C0000309729F00190F081E02D0995089580E03A
:102C10000895E0913902F0913A02309721F0028054
:102C2000F381E02D09950895DC01E0913902F091DE
:102C30003A02309739F082E08C930480F581E02DE0
:102C4000CD0109950895A3E0B0E0E9E2F6E10C9426
:102C5000151B9C01809137029091380282179307CF
:102C6000A1F03093380220933702E0913902F091BD
:102C70003A02309751F083E089833B832A830680B0
:102C8000F781E02DCE01019609952396E2E00C94A0
:102C9000311BA3E0B0E0EFE4F6E10C94151B9C01BE
:102CA000809135029091360282179307A1F03093FC
:102CB000360220933502E0913902F0913A023097C2
:102CC00051F084E089833B832A830680F781E02DDD
:102CD000CE01019609952396E2E00C94311BAC01DC
:102CE0009C012E5F3F4F485F5F4F80E02417350700
:102CF00009F40895F90191919F019923B9F38F5F28
:102D0000F5CF9C01662351F0FC013296285F3F4FBE
:102D10008191861729F0E217F307D1F780E0089533
:102D200081E008959C01FC0132968FEF90E0419183
:102D3000461751F08F3F19F4411101C0892F9F5F51
:102D40009630A9F78F3F09F40895280F311D87FDAC
:102D50003A95F901628308959C01FC013296285F3F
:102D60003F4F8191861303C0DF0111971C92E21738
:102D7000F307B9F708950E94921608950E94AC16C1
:102D80000895FC01329686E0DF011D928A95E9F7ED
:102D90000895DC01FB0111969C9111978181981394
:102DA00022C012968C911297882319F09281891370
:102DB0001AC013968C911397882319F09381891365
:102DC00012C015968C911597882319F09581891357
:102DD0000AC014969C91992321F081E02481291343
:102DE00003C080E001C081E08170089508950895D6
:102DF0000E94F7160895089508950E94F616089502
:102E0000CF930E94FB160E9431110E94FC16C0E075
:102E10008C2F0E946D10892B31F4CF5FC630C1F723
:102E200080E0CF91089581E0FCCF08951F921FB6F6
:102E30001F9211248F939F93AF93BF9380913B0276
:102E4000811113C08091E8029091E902A091EA02F9
:102E5000B091EB024196A11DB11D8093E8029093C1
:102E6000E902A093EA02B093EB02BF91AF919F9168
:102E70008F911F901FBE1F90189580913E0288234E
:102E800031F10E94B60310923B0288E190E020E409
:102E90000FB6F894A895809360000FBE2093600051
:102EA00083B7817F846083BF83B7816083BF789459
:102EB000889583B78E7F83BF0FB6F894A8958091CD
:102EC0006000886180936000109260000FBE0895DA
:102ED0000E9439070E94BB03089582E084BD93E0FD
:102EE00095BD9AEF97BD80936E0008952FB7F89423
:102EF0008091E8029091E902A091EA02B091EB0280
:102F00002FBF0895A4E0B0E0E8E8F7E10C94151BAA
:102F10008FB7F8942091E8023091E9024091EA02DB
:102F20005091EB0229833A834B835C838FBF698185
:102F30007A818B819C812496E2E00C94311B9C0168
:102F40004FB7F8948091E8029091E902A091EA02CB
:102F5000B091EB024FBF821B930B089578941F92A0
:102F60001FB61F9211248F939F93AF93BF938091AD
:102F7000E8029091E902A091EA02B091EB02019679
:102F8000A11DB11D8093E8029093E902A093EA028B
:102F9000B093EB02BF91AF919F918F911F901FBE95
:102FA0001F90189588E198E00FB6F894A895809343
:102FB00060000FBE90936000A895F894D8E0CEEF23
:102FC00028E3299320E0299314BEFFCF089588E1D8
:102FD00098E00FB6F894A895809360000FBE909388
:102FE0006000FFCF0E94761790933D0280933C02D1
:102FF00080E890E00FB6F8948093610090936100B0
:103000000FBE08950E94D01A539A80E0815019F49F
:10301000539878940895A895EFE9FFE03197F1F778
:1030200000C00000F3CF0E94E9180E94F7152FEFAF
:1030300080E792E0215080409040E1F700C000001E
:10304000089580911303882311F1109213030E94B5
:10305000761790933D0280933C0280913E02882334
:1030600041F010923E020E94681780913E02811149
:1030700012C00E94D81980911903882329F08091E9
:10308000F70284FD0E94B10D0E948D180895809171
:103090003E02882301F10E943D170E9400178823F9
:1030A000A9F3F8942AB15B9A822F8C608AB99BB1FC
:1030B0003CE093279BB94FE788E391E04150804083
:1030C0009040E1F700C000008BB183278BB92AB98B
:1030D0005B987894089580913C0290913D020E9403
:1030E0009F17069708F4C1CF81E080933E020E94AB
:1030F0003D17BBCF8091CD0208952091300324FF6E
:1031000003C063E00E94D31908952091300324FF87
:1031100003C066E00E94D3190895CF93DF93CAE0FD
:10312000D0E08091F70284FF1AC080914A0290910A
:103130004B02981789F028E0829FC001112468E0B3
:10314000845B9D4F0E94CE1980914A0290E00196C7
:103150008F70992780934A02DF91CF9108950E9442
:10316000D8198FE99FE00197F1F700C0000021977F
:10317000C1F6F2CFCF93DF93D82FC92FA0914B0286
:10318000B0E0CD0101968F70992720914A0228174F
:1031900081F093E0AA0FBB1F9A95E1F7A45BBD4FA6
:1031A00098E0ED2FFC2F01900D929A95E1F7809316
:1031B0004B020E94D8190E948D1888E0ED2FFC2F39
:1031C000A2E4B2E001900D928A95E1F7DF91CF91F0
:1031D00008958AE091E00895FC0180818076803234
:1031E000F1F48181813061F484819581892BB9F476
:1031F00082E492E0909315038093140388E008958D
:10320000823041F48CEC92E0909315038093140388
:1032100081E008958A3029F483818093CC0280E094
:1032200008958930E1F7828193818115924069F494
:1032300084819581892B49F481E0809341028681C4
:1032400097819093400280933F028FEF0895FC0195
:1032500080913F0290914002892B61F08091410260
:10326000813041F490819093CD02109240021092EF
:103270003F0208958FEF08950895FC018381833004
:1032800059F130F48130C1F08230F1F080E00895DE
:10329000813209F440C08232C9F784819581009758
:1032A00009F44AC0019791F78DEC91E090931503D2
:1032B000809314038BE7089583E991E090931503BD
:1032C0008093140382E1089588E591E090931503BB
:1032D000809314038BE308958281813061F0823002
:1032E00091F08111D3CF89EC91E0909315038093F5
:1032F000140384E008958DEB91E09093150380937F
:1033000014038AE0089585EA91E090931503809371
:10331000140386E108958281882331F0813009F019
:10332000B5CF83E891E002C08AE691E0909315035F
:103330008093140389E0089588E492E09093150344
:103340008093140384E408951F93CF93DF93782F21
:10335000162FEA01888184FF1EC0898128E8822710
:103360008983AE014E5F5F4FFA01272F392F710F0E
:10337000D9012F5F3F4F8C918193872F821B1816A5
:10338000BCF3612FCA010E947A011C5F1883DF9190
:10339000CF911F9108958AE58883E3CF47EF52E0EC
:1033A0000E94A419089540E353E00E94A4190895CF
:1033B000CF93DF9360911603635067FD12C0809135
:1033C0001203CCE0D0E0C81BD109C65EDC4F80916F
:1033D0001103803108F059C0CE010E943C191092AF
:1033E00016038091130184FF43C0809112018F3F27
:1033F00009F43EC0C82F893008F0C8E0982F9C1B04
:10340000909312019091EC0228E892279093EC029D
:10341000882301F1809114039091150320911003EA
:1034200026FFB2C0FC012C2F4DEE52E03491DA01A0
:103430003C934F5F5F4F31962150C1F79C012F5F46
:103440003F4F8FEF8C0F820F932F911D9093150399
:10345000809314036C2F8DEE92E00E947A0184E039
:103460008C0FC83019F09FEF9093120180931301D5
:1034700084E199B19C7031F48150D9F7109217030F
:1034800010920F03DF91CF9108958D3209F069C03A
:10349000683009F0A4CF83EC8093EC028AE5809336
:1034A0001301109210038881807671F0CE010E9482
:1034B000EC188F3FC1F4988197FD8E8190E890932E
:1034C0001003809312018BCF2A811092F50299810B
:1034D000911111C01092F60225EF32E082E0309394
:1034E0001503209314039F819111EBCF9E819817B0
:1034F00040F7892FE6CF953029F42093170325EF65
:1035000032E0EDCF963099F49B81913021F4CE01D9
:103510000E943D1908C09230D1F39330C1F391322B
:10352000B1F39232A1F390E490931003C2CF98309C
:1035300089F0993019F420931903E1CF9A3071F092
:103540009B30E9F69BE49093F802909331039093BB
:103550000403D5CF29E133E081E0C1CF25EF32E08C
:10356000FBCF8091100387FF3ACFCE010E9427192D
:103570008F3F21F48EE18093130131CF882309F42A
:103580002ECF109212012BCFDC012C2F4DEE52E0EA
:10359000FA013D9130834F5F5F4F2150C9F74ECF05
:1035A000CF93DF93E9E6F0E0808188608083E99A39
:1035B000C7EFD2E08BE48983A0E3B3E011968C934C
:1035C0001197E3E0F3E081838AE588838C9380831D
:1035D000DF91CF91089597FB072E16F4009407D042
:1035E00077FD09D00E943C1B07FC05D03EF4909566
:1035F00081959F4F0895709561957F4F0895EE0FC7
:10360000FF1F0590F491E02D09942F923F924F9265
:103610005F926F927F928F929F92AF92BF92CF9262
:10362000DF92EF92FF920F931F93CF93DF93CDB76B
:10363000DEB7CA1BDB0B0FB6F894DEBF0FBECDBFE3
:1036400009942A88398848885F846E847D848C84B4
:103650009B84AA84B984C884DF80EE80FD800C81BD
:103660001B81AA81B981CE0FD11D0FB6F894DEBFA0
:103670000FBECDBFED010895AA1BBB1B51E107C0D2
:10368000AA1FBB1FA617B70710F0A61BB70B881FF2
:10369000991F5A95A9F780959095BC01CD01089581
:1036A000FB01DC0104C08D910190801921F441508F
:1036B0005040C8F7881B990B0895FB01DC0102C03C
:1036C00001900D9241505040D8F70895F999FECFDE
:1036D00092BD81BDF89A992780B50895A8E1B0E020
:1036E00042E050E00C94AA1BDC01A40FB51F41502E
:1036F000504048F0CB01840F951F2E910E94851BEE
:1037000041505040D0F70895262FF999FECF92BD31
:1037100081BDF89A019700B4021639F01FBA20BD96
:103720000FB6F894FA9AF99A0FBE08950396272FC8
:103730000E94851B0E94841B252F0E94851B242F1D
:103740000C94851B0196272F0E94851B0C94841BCB
:10375000DC01CB01FC01F999FECF06C0F2BDE1BD51
:10376000F89A319600B40D9241505040B8F7089540
:10377000F894FFCF2E052E0580058005E50501068E
:103780005D055D050606790688068806A2141615ED
:10379000AA1474147814AE147C14B214BE148814D1
:1037A0000F158C14C2149014C614EE149414CA1479
:1037B000F5149A14D014D8148014B6148414BA14BE
:1037C0009E14D414E414FE140D156E14A6141D15C5
:0E37D000D015D615C015CA15DC15E215E81582
:1037DE000002280850011E0A14017A18BA1885181A
:1037EE007D18FF5AE200E900EA00B500B600B70006
:1037FE00CD008301CC008A019201940121022302A3
:10380E0024022502260227022A02B300B4006F000A
:10381E0070009F01CB019F02A002E200E900EA00C6
:10382E00B500B600B700CD008301CC008A0192012D
:10383E0094012102230224022502260227022A02D3
:10384E00B300B4006F0070009F01CB019F02A00275
:10385E00309796959491906162636035343332312E
:00000001FF
